:10000000B8C00000D7C00000D5C00000D3C00000B9
:10001000D1C00000CFC00000CDC00000CBC00000A8
:10002000C9C00000C7C00000C5C00000C3C00000B8
:10003000C1C00000BFC00000BDC00000BBC00000C8
:10004000B9C000000C9431150C945E150C948B15FE
:100050000C940415AFC00000ADC00000ABC00000A0
:10006000A9C00000A7C00000A5C00000A3C00000F8
:10007000A1C000009FC000009DC000009BC0000008
:100080000C94E5150C9412160C943F160C94B815AC
:1000900091C000008FC000008DC000008BC0000028
:1000A00089C0000087C000000C9499160C94C616F5
:1000B0000C94F3160C946C167DC000000C944D1734
:1000C0000C947A170C94A7170C94201773C0000097
:1000D00071C000006FC000006DC000006BC0000068
:1000E00069C000000C942A100C9434100C94201059
:1000F0000C949F0F0C94CA0F0C943E100C94740F28
:100100000C94F50F57C0000055C0000053C000000C
:1001100051C000004FC000000C9452100C944810C5
:100120000C945C100C9466100C9470100C947A1063
:100130000C948410090D300D240D3D0D240DFC0C84
:10014000160D240D240D240D240D240DD50C240D85
:10015000240D240D240D240D240D5C0D240D240DDF
:10016000950D04030302020100FFFEFDFCFBF9F7FD
:10017000F4EF11241FBECFEFD1E8DEBFCDBF00E00A
:100180000CBF13E0A0E0B2E0EEE5F4E300E00BBF4B
:1001900002C007900D92AE3CB107D9F728E0AEEC53
:1001A000B3E001C01D92A33AB207E1F70E94021921
:1001B0000C942D1A25CF0E94AC142091D203222337
:1001C000D9F04091A20830E02091D203642F732F20
:1001D0000E942B19FB018FEF9FEF642F732F0E945A
:1001E0002B1930E0629FC001639F900D729F900DAC
:1001F00011248E0F9F1F08956091A20870E00E9445
:100200002B19CB0108950E94B1140E94D5141092AD
:10021000CE031092CF031092D0031092D10310920C
:10022000D4031092D3030C94E2140E94BF141092D2
:10023000D2030895E8DFF9DF0C94C6140F931F93DF
:10024000CF93DF93EC010E94AC148C01BE0180E0DF
:1002500090E02091A20830E040E050E00E941C199C
:10026000DC01CB01A80160E070E0480F591F6A1F54
:100270007B1F4093CE035093CF036093D0037093C2
:10028000D1034091CE035091CF036091D003709180
:10029000D103AB01662777274093CE035093CF035A
:1002A0006093D0037093D1034091CE035091CF035C
:1002B0006091D0037091D10341155105610571051D
:1002C00091F04091CE035091CF036091D003709193
:1002D000D1030196080F191F1093D4030093D30381
:1002E0000E94B11408C0080F191F1093D403009383
:1002F000D3030E94B8148091D3039091D403843621
:10030000910530F48C599F4F9093D4038093D3037D
:100310008091D3039091D4030E94CA14DF91CF91AE
:100320001F910F9108951092D2030E94E4148093BC
:10033000A20808958091CE039091CF03A091D0039D
:10034000B091D1030097A105B105C9F08091CE030A
:100350009091CF03A091D003B091D1030197A1094F
:10036000B1098093CE039093CF03A093D003B093B1
:10037000D1030097A105B10511F40E94B814809132
:10038000D2038F5F8093D2039091A208891748F01F
:100390001092D203E091D503F091D603309709F083
:1003A000199508950E94B114E091D703F091D803F4
:1003B000309709F0199508959093D6038093D5034B
:1003C00008959093D8038093D7030895FC0185E0A6
:1003D0008083118281E0828383E0838384E8848345
:1003E00085E090E00895FC01633659F485E0808350
:1003F00082E0818381E082831382848385E090E0C0
:100400000895673649F483E0808382E0818381E048
:10041000828383E090E0089580E090E0089581E099
:1004200090E090933E0880933D08089504C0615089
:100430007109810991096115710581059105B9F766
:1004400008950F931F93CF93DF932091E30330918F
:10045000E4032130310579F5EC010DE516E081E783
:10046000F80111928A95E9F7EF81F88581E7D801C3
:1004700001900D928A95E1F789819A810E94B10BD2
:10048000F801838581110BC01092E4031092E303FD
:1004900081E090E090930F0280930E020CC08130B7
:1004A00051F41092E4031092E30381E090E0909302
:1004B0000F0280930E02DF91CF911F910F9108954B
:1004C0000895CF93DF93CDB7DEB7AC970FB6F8940E
:1004D000DEBF0FBECDBF8BE2E0E1F2E0DE011196A0
:1004E00001900D928A95E1F71CA680910C029091E3
:1004F0000D028130910561F482E090E090930D024D
:1005000080930C0261E874E88EE190E08FDFB7C061
:100510008230910599F483E090E090930D028093EE
:100520000C0241E050E06CE2CE010196F4D381E090
:1005300090E09093E4038093E303A1C0833091059E
:1005400009F072C080910E0290910F02019759F448
:1005500010920F0210920E0281E090E09093E0035F
:100560008093DF038CC08091DF039091E0038130A2
:10057000910529F51092E0031092DF0340910602E5
:10058000509107022091040230910502429FC00160
:10059000439F900D529F900D11249093EA038093F6
:1005A000E903F6D282E090E09093E6038093E503BE
:1005B00084E090E090930D0280930C0260C0209143
:1005C0003D0830913E082130310559F410923E0823
:1005D00010923D0882E090E09093E0038093DF0367
:1005E0004EC0029709F04BC01092E0031092DF0357
:1005F00041E050E06AE286E992E08DD38091080202
:10060000909109029093EA038093E903C1D281E0BB
:1006100090E09093E6038093E50384E090E090936C
:100620000D0280930C022BC08430910561F485E0AB
:1006300090E090930D0280930C0261E874E88EE1E3
:1006400090E0F4DE1CC00597D1F481E090E0909337
:100650000D0280930C0241E050E06CE281EC92E0EC
:100660005AD38091E5039091E6039093E803809339
:10067000E7038FEF9FEF9093E6038093E503AC963B
:100680000FB6F894DEBF0FBECDBFDF91CF910895B6
:10069000009721F45E9AA29A729A0895813091058A
:1006A00021F45E98A29A729A08958230910521F4FD
:1006B0005E9AA298729A08958330910521F45E9A09
:1006C000A29A72980895049719F45E98A298729A63
:1006D0000895CF93DF93CDB7DEB7AC970FB6F894FC
:1006E000DEBF0FBECDBF8CE2ECE3F2E0DE0111967F
:1006F00001900D928A95E1F780910C0290910D0284
:100700008130910561F482E090E090930D02809336
:100710000C0261E874E88EE190E088DEB0C08230BF
:10072000910569F483E090E090930D0280930C02B0
:1007300041E050E06CE2CE010196EDD2A0C08330E2
:10074000910509F071C060990FC06BEA71E184E016
:1007500090E06CDE81E090E09BDF81E090E09093A0
:10076000DC038093DB038BC08091DB039091DC037F
:10077000019791F41092DC031092DB0326D241E042
:1007800050E06CE28EEE92E0C6D281E090E0909371
:10079000DE038093DD0373C08091DD039091DE035F
:1007A000019781F41092DE031092DD0366E573E297
:1007B00088E090E03BDE81E090E09093E00380935E
:1007C000DF035DC08091DF039091E003019709F0A2
:1007D00056C01092E0031092DF038EEF96E0F6DD34
:1007E0008093E1039093E20340E050E0682F8EEFA6
:1007F00096E091D21092E2031092E10380910802F8
:10080000909109029093EA038093E903C1D181E0BA
:1008100090E09093E6038093E50384E090E090936A
:100820000D0280930C022BC08430910561F485E0A9
:1008300090E090930D0280930C0261E874E88EE1E1
:1008400090E0F4DD1CC00597D1F481E090E0909336
:100850000D0280930C0241E050E06CE28BE193E0EA
:100860005AD28091E5039091E6039093E803809338
:10087000E7038FEF9FEF9093E6038093E503AC9639
:100880000FB6F894DEBF0FBECDBFDF91CF910895B4
:10089000CF93DF93CDB7DEB7AC970FB6F894DEBF3A
:1008A0000FBECDBF8CE2E9E6F2E0DE0111960190C9
:1008B0000D928A95E1F780910C0290910D028130A2
:1008C000910561F482E090E090930D0280930C0218
:1008D00061E874E88EE190E0A9DD38C182309105CD
:1008E00099F483E090E090930D0280930C0241E034
:1008F00050E06CE2CE0101960ED281E090E0909340
:10090000E4038093E30322C18330910509F0F3C02F
:1009100080913D0890913E08019789F410923E081D
:1009200010923D0841E050E06AE288E493E0F3D1A0
:1009300081E090E09093DE038093DD03AFC080916F
:10094000DD039091DE03019771F41092DE031092A3
:10095000DD036BEA71E184E090E068DD10920B0248
:1009600010920A029BC080910A0290910B0200979C
:10097000F1F48FEF9FEF90930B0280930A028EEFBA
:1009800096E024DD8093E1039093E20340E050E0A1
:10099000682F8EEF96E0BFD11092E2031092E10330
:1009A00081E090E09093E0038093DF0377C0209193
:1009B000DF033091E00321303105D1F41092E003E0
:1009C0001092DF0380910802909109029093EA034C
:1009D0008093E903DDD081E090E09093E60380937B
:1009E000E50384E090E090930D0280930C0256C0E2
:1009F00020910E0230910F022130310581F41092C6
:100A00000F0210920E026BE275E387E490E00EDDB8
:100A100082E090E090930B0280930A023FC002971D
:100A200029F58FEF9FEF90930B0280930A0267E600
:100A300088E098E0D8DC8093E1039093E20340E003
:100A400050E0682F88E098E066D11092E20310929F
:100A5000E10381E090E09093E6038093E50384E076
:100A600090E090930D0280930C0218C08091D903FE
:100A70009091DA03019791F46BEA71E184E090E0E0
:100A8000D5DCA3D082E090E09093E6038093E50369
:100A900084E090E090930D0280930C0260990CC06A
:100AA0006BEA71E184E090E0C1DC81E090E090933A
:100AB000DC038093DB034AC08091DB039091DC036D
:100AC000019709F043C01092DC031092DB0380E031
:100AD00090E0DEDD41E050E06CE283E793E01BD183
:100AE0001092E6031092E50384E090E090930D02EB
:100AF00080930C022BC08430910561F485E090E076
:100B000090930D0280930C0261E874E88EE190E00E
:100B10008DDC1CC00597D1F481E090E090930D022C
:100B200080930C0241E050E06CE280EA93E0F3D065
:100B30008091E5039091E6039093E8038093E703A7
:100B40008FEF9FEF9093E6038093E503AC960FB68B
:100B5000F894DEBF0FBECDBFDF91CF910895809195
:100B6000E7039091E803009711F4B3CD0895813025
:100B7000910511F48DCE0895029709F4A2CC089541
:100B80004ECC08958FE398E0C8D2811140C10895FA
:100B9000EF92FF920F931F93A091E903B091EA03A4
:100BA00020E432E44FE050E00E947319AB01BC0135
:100BB000E12CF12C00EC15E020E080913F08BAD246
:100BC0001F910F91FF90EF90089580913F081DC4F1
:100BD00008954F925F926F927F928F92AF92CF92D1
:100BE000EF920F931F93CF93DF93CDB7DEB7A9E8B2
:100BF000B0E0AE19B109FD01E351FC4F3F01EE2019
:100C000079F0D80144244A944E0C512C9FEF491A94
:100C1000590A040D151D9D919193A017B107D9F79D
:100C2000423061F43BE03E0DD30140918908509180
:100C30008A085E934E9340E050E826C0D30118978F
:100C400031E13E0DEDE7F8E090819C9391811196A2
:100C50009C931197928112969C931297938113966D
:100C60009C931397948114969C9314979581159651
:100C70009C931597968116969C9316979781179635
:100C80009C93179740E050EC823059F4FB0180812F
:100C90009181FD01929382933F01CA018064986023
:100CA0000FC03D01F8E06F1A71083A5F88E0FB0160
:100CB000D30101900D928A95E1F7CA0180649C608E
:100CC0004EEF5AECF30132975183408331972083E2
:100CD000C11002C0816001C08162F3013597918328
:100CE0008083D30116973C93B093F503A093F4034C
:100CF000482D6A2D8DEE93E00E943114DF91CF9143
:100D00001F910F91EF90CF90AF908F907F906F9049
:100D10005F904F9008958F92AF92CF92EF920F9382
:100D20001F93CF93DF931F921F92CDB7DEB741156C
:100D3000510529F422E030E03A83298307C041308D
:100D4000510521F42EE73AE63A8329832091EB03FB
:100D50003091EC03A9014F5F5F4F5093EC03409338
:100D6000EB03812C6894AA24A1F8C12CE62E8C01F7
:100D700042E0BE016F5F7F4F82E02BDF0F900F904C
:100D8000DF91CF911F910F91EF90CF90AF908F9007
:100D9000089586E00C945E130895CF93DF9300D0FE
:100DA00000D0CDB7DEB742D033D033D4EBD78111EA
:100DB000FFCF789481E090E09A8389838EEF9AEC5C
:100DC0009C838B838BE08D831E82BE016F5F7F4F80
:100DD00083E50E948D11BE016D5F7F4F80E50E940B
:100DE0008D11BE016B5F7F4F80E00E948D11BE01AF
:100DF0006A5F7F4F84E00E948D11CBDF26960FB68D
:100E0000F894DEBF0FBECDBFDF91CF910895FFCF25
:100E10008DB18E7F9EB15E9A569AA29A9A9A9560EB
:100E20009EB984608DB90895ADCE0895CF93DF93B8
:100E30001F92CDB7DEB78FEF80936400809365007B
:100E40008FB78983F89489815F9350E8509361004C
:100E500050E0509361005F918FBF0F90DF91CF9171
:100E60000895CF93DF931F92CDB7DEB79FB79983D5
:100E7000F8949981823040F4E82FF0E0EC59FF4F6C
:100E800060958081682360839FBF0F90DF91CF9131
:100E90000895CF93DF931F92CDB7DEB79FB79983A5
:100EA000F8949981823038F4E82FF0E0EC59FF4F44
:100EB0008081682B60839FBF0F90DF91CF91089551
:100EC00080917C04882319F081E080937408089550
:100ED0001F93CF93DF931F92CDB7DEB78091400869
:100EE00090914108019690934108809340088FB7F4
:100EF0008983F894198180917B048F3FE9F190E018
:100F0000FC01EE0FFF1F9C01220F331F220F331F26
:100F1000220F331FE20FF31FEE5BF74F21852111E4
:100F20002BC0FC01EE0FFF1F880F991F880F991F20
:100F3000880F991FE80FF91FEE5BF74F80819181B1
:100F4000A281B38120914008309141082A173B07C4
:100F500099F474D980917B0490E0FC01EE0FFF1F9F
:100F6000880F991F880F991F880F991FE80FF91F85
:100F7000EE5BF74F81E081871FBF0F90DF91CF912C
:100F80001F9108950F931F93CF93DF93C82F8F3F27
:100F900009F460C000914008109141080CD94091BB
:100FA00040085091410804171507A1F7D0E060E010
:100FB00070E0FE01EE0FFF1F9E01220F331F220F74
:100FC000331F220F331FE20FF31FEE5BF74FBA01FF
:100FD00055274427A0E0B0E0482B592B6A2B7B2BE8
:100FE00080819181A281B381841B950BA60BB70BE5
:100FF0008F3F2FEF9207A2072FE7B20738F59E0128
:10100000220F331F220F331F220F331FFE01EE0F5B
:10101000FF1FE20FF31FEE5BF74F218521111BC06D
:10102000009721E0A207B105B0F408D9CE01880FDE
:10103000991FCC0FDD1FCC0FDD1FCC0FDD1FC80F9C
:10104000D91FCE5BD74F81E0898705C081E08093AF
:10105000740801C0D8D8DF91CF911F910F910895E6
:1010600080917408882309F457C010927408809105
:101070007C04882309F450C080917A048F3F59F48E
:10108000809179048F3F39F480917B0480937904B7
:1010900080937A0415C020917B048091790490E0BC
:1010A000FC01EE0FFF1F880F991F880F991F880FF3
:1010B000991FE80FF91FEE5BF74F20872093790403
:1010C00080917B0490E0FC01EE0FFF1F880F991FB9
:1010D000880F991F880F991FE80FF91FEE5BF74FD4
:1010E000808580937B042091790430E0F901EE0F34
:1010F000FF1F220F331F220F331F220F331FE20F58
:10110000F31FEE5BF74F9FEF908790917C04915017
:1011100090937C04911136CF0895FC01909178044E
:10112000953030F490839F5F9093780480E0089529
:1011300084EF08952F923F924F925F926F927F9229
:101140008F929F92AF92BF92CF92DF92EF92FF92D7
:101150000F931F93CF93DF93CDB7DEB727970FB6CB
:10116000F894DEBF0FBECDBF382E4A015B01222EA0
:10117000FF82EE826894442442F8481608F400C1C5
:101180000115110509F4FEC0C82ED12CF601EE0F91
:10119000FF1FC601880F991F880F991F880F991F7D
:1011A000E80FF91FEE5BF74F84819581892B09F0D9
:1011B000EBC0E0904008F09041080E94DB004091B5
:1011C000400850914108E416F50699F760E070E098
:1011D000BA01552744272C01612C712C4A825B826D
:1011E0006C827D82442A552A662A772A222021F0A1
:1011F00021E0221691F0CAC0B501A401405851095E
:101200006109710940385F4F6F4F7F4708F0C0C0D8
:10121000840C951CA61CB71C10C0B501A401405835
:10122000510961097109441955096609770940385E
:101230005F4F6F4F7F4708F0ADC08FB78983F89439
:10124000F9800EDFC601880F991F880F991F880F3C
:10125000991FF601EE0FFF1FE80FF91FEE5BF74F26
:1012600080829182A282B382158304834E805F8044
:10127000578246821186B0917C04BF5FB0937C0494
:10128000A0917B04AF3F21F0B11107C0EA2E84C0CA
:1012900030927B04832D76DE70C0EA2E4A2F50E018
:1012A0004F3F09F466C0842F90E0BC01660F771FA2
:1012B0009C01220F331F220F331F220F331F260FD3
:1012C000371FF901EE5BF74F4080518062807380D9
:1012D00095018401041915092609370928013901E6
:1012E0001FEF4116510661061FE7710670F4FB01FE
:1012F000880F991F880F991F880F991FE80FF91FF2
:10130000EE5BF74FE42E408534C0F601EE0FFF1F71
:10131000CC0CDD1CCC0CDD1CCC0CDD1CEC0DFD1D47
:10132000EE5BF74F4087FC01EE0FFF1F880F991F00
:10133000880F991F880F991FE80FF91FEE5BF74F71
:101340001186A41305C030927B04832D1BDE15C0CB
:101350008E2D90E0FC01EE0FFF1F880F991F880F64
:10136000991F880F991FE80FF91FEE5BF74F308622
:1013700004C05F5FB51394CF0FC0FFBE80E02CC0E8
:1013800088EF2AC088EF28C083EF26C088EF24C0EA
:1013900088EF22C088EF20C08E2D90E0FC01EE0F78
:1013A000FF1F880F991F880F991F880F991FE80F3B
:1013B000F91FEE5BF74F3086F601EE0FFF1FCC0CE6
:1013C000DD1CCC0CDD1CCC0CDD1CEC0DFD1DEE5B26
:1013D000F74F8FEF8087D1CF27960FB6F894DEBFF7
:1013E0000FBECDBFDF91CF911F910F91FF90EF9076
:1013F000DF90CF90BF90AF909F908F907F906F9035
:101400005F904F903F902F9008950F931F93CF932D
:10141000DF931F92CDB7DEB7853008F0F1C0082FFB
:101420008FB78983F89419811BDE80917C0488230F
:1014300009F466C090917B0409134EC021C00913C2
:101440004BC0802F90E0FC01EE0FFF1F880F991F0B
:10145000880F991F880F991FE80FF91FEE5BF74F50
:101460008085FA01EE0FFF1F440F551F440F551FD3
:10147000440F551FE40FF51FEE5BF74F808715C033
:101480000E940301802F90E0FC01EE0FFF1F880FE8
:10149000991F880F991F880F991FE80FF91FEE5B9E
:1014A000F74F808580937B046DDD802F90E0FC01F9
:1014B000EE0FFF1F880F991F880F991F880F991F24
:1014C000E80FF91FEE5BF74F8FEF808780917C0468
:1014D000815080937C0478C0492F50E0FA01EE0FD0
:1014E000FF1F9A01220F331F220F331F220F331FBA
:1014F000E20FF31FEE5BF74F9085815009F09FCF0D
:1015000080917A048F3F09F475C0081347C025C045
:10151000091343C0202F30E0F901EE0FFF1F220F07
:10152000331F220F331F220F331FE20FF31FEE5B17
:10153000F74F9085FA01EE0FFF1F440F551F440F20
:10154000551F440F551FE40FF51FEE5BF74F9087B3
:1015500090917904091338C01DC080917904081353
:1015600006C08FEF8093790480937A042DC0802F7A
:1015700090E0FC01EE0FFF1F880F991F880F991F45
:10158000880F991FE80FF91FEE5BF74F8085809356
:101590007A041AC08093790417C0892F482F50E02D
:1015A000FA01EE0FFF1F9A01220F331F220F331F84
:1015B000220F331FE20FF31FEE5BF74F90859F3F23
:1015C00009F0A6CF80E017C0802F90E0FC01EE0F5D
:1015D000FF1F880F991F880F991F880F991FE80F09
:1015E000F91FEE5BF74F158214821782168211865F
:1015F00081E001C080E01FBF811104C082EF03C001
:1016000088EF01C080E00F90DF91CF911F910F9183
:10161000089510927C041092740810924108109260
:1016200040088FEF80937B0480937A048093790441
:10163000E2E4F8E024E738E08087158214823A96E5
:10164000E217F307C9F71092780488E697E00E9442
:10165000DC0180E697E00E94E1010C94930108957B
:101660000F931F93CF93DF931F921F92CDB7DEB7D7
:101670008FB78A83F8941A81F3DC1FBF1FEF012F05
:1016800037C08FB78983F894298180917A0490E0DC
:10169000DC01AA0FBB1F880F991F880F991F880FA5
:1016A000991FA80FB91FAE5BB74F18969C9118975A
:1016B0001496ED91FC91159716964D915C911797A4
:1016C00018961C93189715961C921E9214971796AD
:1016D0001C921E92169719961C9290937A049F3F23
:1016E00011F4009379042FBF309711F0CA011995B6
:1016F00080917A048F3F29F60F900F90DF91CF9160
:101700001F910F91089580E00895AACF0895CF9377
:10171000DF938DE794E0B0D0C2E8D4E08EE894E0A7
:1017200099838883BE018DE794E0ADD089E195E08F
:101730009D838C8366E874E08DE794E0A4D084EA0E
:1017400095E0998788876AE874E08DE794E09BD0FC
:10175000DF91CF91089560E070E08DE794E0B8C02C
:101760000895009721F0BC018DE794E08CC00895A6
:101770008F929F92AF92BF92CF92DF92EF92FF92A1
:101780000F931F93CF93DF931F92CDB7DEB72FB781
:101790002983F8948980DC0114962C91222309F482
:1017A00056C07A01962E5C01FC0100811181452B07
:1017B000E1F00115110509F44DC0680101C089016E
:1017C000D70112966D917C911397ED91FC91D80100
:1017D0008D919C911995811109C0F8012281338165
:1017E00068012115310559F735C06801011511054A
:1017F00099F1911031C0D5018D919C9111970817E5
:10180000190731F4F801828193818D939C9308C06C
:10181000D80112968D919C911397F6019383828340
:10182000D50112968D919C9113970817190721F4F1
:101830001396DC92CE921297F501848181508483B5
:1018400080819181892B41F41382128205C000E0CE
:1018500010E002C000E010E08FBEC8010F90DF91E1
:10186000CF911F910F91FF90EF90DF90CF90BF909D
:10187000AF909F908F900895FC0111821082138287
:10188000128214820895CF93DF931F92CDB7DEB7F3
:10189000FC018FB78983F89499818481811103C0F9
:1018A0007183608306C0A281B38113967C936E938B
:1018B000129773836283DB0113961C921E92129718
:1018C00084818F5F84839FBF0F90DF91CF910895B4
:1018D000AB0160E04DCF089504C0615071098109EA
:1018E00091096115710581059105B9F708950F9367
:1018F0001F93CF93809141018F718830A1F481E0D3
:1019000080934F0189E080934201C3E00FE411E02E
:10191000F801808180FD07C063E970E080E090E01D
:10192000DBDFC150A9F7CF911F910F9108951F934D
:10193000CF93DF931F92CDB7DEB7182F80919C080D
:101940008F3029F51F3009F42EC11092A00880EBCA
:1019500090E1C5D28FB78983F89499817894E9E3AF
:10196000F1E080818D7F80838091A0088823E1F35E
:101970009FBF8FEF80934F0188E480934E01183012
:1019800011F0133021F488E080939C080CC1812F62
:1019900090E0FC013397E731F10508F055C0882746
:1019A000E656FF4F8F4F0C94521983E0809342010B
:1019B0000E94D81980936D01EEE6F1E08081977066
:1019C000887F892B80838FEF80934F0180E88093FD
:1019D0004E0162E070E080E090E07EDFE9E3F1E05C
:1019E0008081826080836FE270E080E090E074DF4D
:1019F0008FE080939C08D7C080919C08883021F1AB
:101A000088E08093420162E070E080E090E064DF73
:101A10001BC080919C088830B9F083E0809342011C
:101A200062E070E080E090E057DF0EC080919C089B
:101A3000883049F018F4863039F409C0863139F01D
:101A4000893111F404C053DFE1E4F1E0A6C089E07C
:101A50008093420162E070E080E090E03DDFF4CFEF
:101A600080919C08883019F0893071F302C03FDF03
:101A7000EBCF84E080934201E7CF80919C088930CE
:101A800041F018F4883071F0DFCF863111F08931E0
:101A9000D9F686E08093420162E070E080E090E059
:101AA0001BDFD2CF24DF86E08093420162E070E04A
:101AB00080E090E011DFC8CF80919C08883091F0E1
:101AC00018F48630C9F0C0CF893019F0893109F097
:101AD000BBCF86E18093420162E070E080E090E05D
:101AE000FBDEB2CF04DF86E18093420162E070E06A
:101AF00080E090E0F1DEA8CF89E08093420162E0CF
:101B000070E080E090E0E8DE809141018F71809389
:101B10009C08893009F047C086E18093420162E069
:101B200070E080E090E0D8DE8FCF80919C08883014
:101B300051F118F4863079F087CF893019F0863169
:101B400051F082CF89E18093420162E070E080E051
:101B500090E0C2DE79CF89E08093420162E070E0DC
:101B600080E090E0B9DE809141018F7180939C0804
:101B70008930C9F489E18093420162E070E080E03D
:101B800090E0AADE61CFB3DE89E18093420162E09A
:101B900070E080E090E0A0DE57CF80818F7180936D
:101BA0009C088F31D1F30F90DF91CF911F91089551
:101BB000CF93DF9380917508882319F18091A10854
:101BC00081111FC080912F0690913006892B41F41E
:101BD0008BE8C1DD9093300680932F06892B89F026
:101BE00010927508CCE4D1E088818F77888363E018
:101BF00070E080E090E070DE88818068888386E114
:101C000096DE80917A08882341F060E070E086E7F4
:101C100098E05EDE009709F012D58091A10882302D
:101C200009F473D5DF91CF91089504C06150710913
:101C3000810991096115710581059105B9F708952B
:101C4000FF920F931F93CF93DF9386E070DE863071
:101C5000E1F7E5E5F1E080818F77808310924E0116
:101C60006894FF24F3F8C0E0D0E006E411E0F80146
:101C70009081CC0FDD1FCC0FDD1F9076292F30E037
:101C800036952795329522952F7023273F7023276D
:101C9000C22BD32B62E070E080E090E0C6DFFA94C4
:101CA000F110E5CF83E043DE8FEF80934F0188E4AE
:101CB00080934E01CE010E94DB19DF91CF911F91DD
:101CC0000F91FF900895FF920F931F93CF93DF938F
:101CD000F82EC9E3D1E088818D7F888361E471E0CB
:101CE00080E090E0A2DF88818E7F888362E070E0F0
:101CF00080E090E09ADF88818160888366E870E008
:101D000080E090E092DF809141018F71CAE001E4B0
:101D100011E00AC066E870E080E090E086DFF8013C
:101D200080818F71C15039F18830A1F780939C0870
:101D300087DF0E94D81980936D01EEE6F1E0808183
:101D40009770887F892B8083808180628083ECE418
:101D5000F1E080818068808388E480934E018FEF7A
:101D600080935601F11030D27DD21092A1081092CA
:101D7000750880E001C085E8DF91CF911F910F9138
:101D8000FF900895CF92DF92EF92FF920F931F93EF
:101D9000CF93DF9314BE80E18093350180933401AB
:101DA0008093330180933201AEDC81116DC060E419
:101DB00081E057D8C9E3D1E0888181608883888138
:101DC0008D7F88836BEF71E080E090E02EDF88816B
:101DD0008E7F888362E070E080E090E026DF88817B
:101DE0008160888366E870E080E090E01EDF80918B
:101DF00041018F71CAE001E411E00BC066E870E0B8
:101E000080E090E012DFF80180818F71C15009F409
:101E100051C0883099F780939C0880915C01843987
:101E200009F048C035C00E94D819F80181938F018C
:101E3000EC15FD05C1F7F701208131814281538105
:101E40006481758186819781AFEF0E947919ADEF2A
:101E50000E94851921F018F00DE718E0E4CF8EE814
:101E600090E138D08FE990E130D080EB90E137D02D
:101E70004EDC8BE870DC9093300680932F0686E76B
:101E800098E0FADC52D517C0C5E815C0C5E813C004
:101E900081E019DFC82F8111F9CF0F2EFDE7EF2E5A
:101EA000F8E0FF2EF02D0F2EF5E8CF2EF8E0DF2E14
:101EB000F02DC1CFC5E88C2FDF91CF911F910F91ED
:101EC000FF90EF90DF90CF90089590933806809325
:101ED00037060895909336068093350608959093BB
:101EE00032068093310608951F920F920FB60F921B
:101EF00011240BB60F922F933F934F935F936F93E1
:101F00007F938F939F93AF93BF93EF93FF93E09152
:101F10003706F09138061995FF91EF91BF91AF9177
:101F20009F918F917F916F915F914F913F912F91F1
:101F30000F900BBE0F900FBE0F901F9018951F9221
:101F40000F920FB60F9211240BB60F922F933F935F
:101F50004F935F936F937F938F939F93AF93BF93B1
:101F6000EF93FF93E0913506F09136061995FF91B6
:101F7000EF91BF91AF919F918F917F916F915F9101
:101F80004F913F912F910F900BBE0F900FBE0F906E
:101F90001F9018951F920F920FB60F9211240BB637
:101FA0000F922F933F934F935F936F937F938F93F2
:101FB0009F93AF93BF93EF93FF93E0913306F0911C
:101FC00034061995FF91EF91BF91AF919F918F9139
:101FD0007F916F915F914F913F912F910F900BBE29
:101FE0000F900FBE0F901F9018951F920F920FB673
:101FF0000F9211240BB60F922F933F934F935F9341
:102000006F937F938F939F93AF93BF93EF93FF93C0
:10201000E0913106F09132061995FF91EF91BF9151
:10202000AF919F918F917F916F915F914F913F9170
:102030002F910F900BBE0F900FBE0F901F90189511
:102040001F920F920FB60F9211240F900FBE0F9098
:102050001F9018951F920F920FB60F9211240F9098
:102060000FBE0F901F9018951F920F920FB60F92F0
:1020700011240F900FBE0F901F9018951F920F9272
:102080000FB60F9211240F900FBE0F901F9018954E
:102090001F920F920FB60F9211240F900FBE0F9048
:1020A0001F9018951F920F920FB60F9211240F9048
:1020B0000FBE0F901F9018951F920F920FB60F92A0
:1020C00011240F900FBE0F901F9018951F920F9222
:1020D0000FB60F9211240F900FBE0F901F901895FE
:1020E0001F920F920FB60F9211240F900FBE0F90F8
:1020F0001F9018951F920F920FB60F9211240F90F8
:102100000FBE0F901F9018951F920F920FB60F924F
:1021100011240F900FBE0F901F9018951F93CF930F
:10212000DF931F92CDB7DEB78FB78983F8941981FB
:1021300019D21FBF0F90DF91CF911F9108951F9368
:10214000CF93DF931F92CDB7DEB78FB78983F89413
:102150001981A6D31FBF0F90DF91CF911F910895D2
:1021600081E08093A008089585FD03C0982F9F7398
:1021700004C0982F91959F719195E2E6F1E024912A
:10218000291754F48491803EB4F08032B4F488234B
:10219000CCF48F71806216C0E1E7F1E024919217D0
:1021A0008CF48491803E5CF080325CF4882354F49B
:1021B0008F71806207C080E205C08FE103C080E2BA
:1021C00001C08FE180680895CF93DF93CDE7D8E019
:1021D00084E08C8B83E08D8B2FEF3FEF3F872E8742
:1021E0003D872C879BE09B8B188E40E058EF6FEF6C
:1021F00077E0488759876A877B872AE031E0398B07
:10220000288B9AE0998F92E09A8F95E09B8F8C8F24
:1022100084E8AADF8F8B81E08A8B1E8ADF91CF91C1
:10222000089585FD02C08F7303C081958F718195DC
:10223000E2E6F1E0949189173CF4E3E6F1E021E075
:10224000949189173CF001C020E098174CF48FEF6F
:10225000820F08952F5F3196203191F780E0089525
:10226000822F0895CF93DF93EDE7F8E08685809382
:102270006201878580936301E4E6F1E0ADE7B8E0B1
:102280008D918193EC3631E0F307D1F7EDE7F8E07B
:1022900084858093600185858093610148E451E0E5
:1022A000DA018C912289B0E22B9F900111242076D3
:1022B0008F79822BDA018C93CFE6D1E088819589E2
:1022C0009F70807F892B88832EE631E0D9018C9125
:1022D0009689990F990F990F9870877F892B8C9306
:1022E0002881938DB0E19B9FC0011124922F9F7094
:1022F000892B8883DA018C9193899F71807E892B49
:102300008C9387898EDFE5E4F1E09081907F8F7078
:10231000892B8083DF91CF910895CF93DF938E3403
:1023200041F0893561F4FB0180818093990880E058
:102330000BC1FB0180818093910880E005C19091E1
:102340009C089F3009F4DCC08B3009F4C9C080F4CC
:10235000EB01823009F484C020F4882309F446C0DC
:10236000D1C0833009F48CC0843009F45AC0CAC08B
:10237000833579F128F48F3451F08035E9F0C2C00B
:10238000873509F456C0803F09F48BC0BBC0FB0100
:102390008081EDE7F8E0858B938D981710F490938A
:1023A0009208EFE6F1E08081909192089F70807F23
:1023B000892B808380E0C8C0FB0190818181EDE79B
:1023C000F8E096878787909362018093630180E0AD
:1023D000BBC0FB0190818181EDE7F8E094878587A0
:1023E000909360018093610180E0AEC08091A1086C
:1023F00081118AC0888140E058EF6FEF77E0082EA6
:1024000004C076956795579547950A94D2F740FF93
:102410007DC0983009F480C088E089DA8830E1F71F
:1024200086C08091A108811173C08881811172C01A
:102430008BC0FB019081EDE7F8E0938F85899817B9
:1024400010F490939208EFE6F1E08081282F2F702E
:1024500030E1939FC0011124822B808380E074C0FF
:102460008881CDE7D8E08F8B7FDE8F8BDADEE5E4E5
:10247000F1E09081907F8F70892B808380E064C031
:10248000888180938F08E8E4F1E0208130E2839F27
:10249000C00111248076922F9F79892B808380E060
:1024A00053C0FB01B081A1815281438134812581D8
:1024B00096818781EDE7F8E0B083A183528343835F
:1024C0003483258396838783E4E6F1E0ADE7B8E0C3
:1024D0008D918193EC3631E0F307D1F780E034C081
:1024E000FB01808180939308EEE6F1E09081880FF4
:1024F000880F880F8870977F892B808380E024C0A5
:1025000081E822C084EF20C086E81EC088EE1CC08F
:1025100086E81AC088EE18C080939008E8E4F1E0DD
:102520009081907E8F71892B808380E00DC088819F
:1025300080939008E8E4F1E09081907E8F71892B80
:10254000808386E1F4D980E0DF91CF91089504C0C3
:102550006150710981099109611571058105910524
:10256000B9F70895CF92DF92EF92FF920F931F93E6
:10257000CF93DF93E0912F06F0913006309771F4FE
:10258000CCE4D1E088818F77888363E070E080E0DD
:1025900090E0DDDF88818068888348C00091470132
:1025A00010917B0111230CF441C0E080F18082E0A6
:1025B000810FEBE8F0E0E81BF109E701CE0FDF1F28
:1025C000C12ED12CA6014F5F5F4F60E871E0CE01B4
:1025D000FDD6FE011293D7011896FC93EE93179740
:1025E000EC0DFD1D028360912F067091300686E789
:1025F00098E049D98BE8AFD89093300680932F06A6
:10260000892B21F481E0809375080DC0CCE4D1E0E2
:1026100088818F77888363E070E080E090E097DFC7
:1026200088818068888380E480934F01DF91CF9117
:102630001F910F91FF90EF90DF90CF900895CF936F
:10264000DF93AC01FC01C081D181AF81B8858C9151
:1026500080939D08E82FF0E03196EA0FFB1F808100
:1026600031813D3320F4311103C031E001C03CE33E
:1026700082958695869583702FEF829FC0011124E5
:10268000389FB001399F700D11249B01A3E8BDE272
:1026900011D696958795929582958F7089279F7010
:1026A00089278F3F910511F008F08FEF80835A83BF
:1026B0004983CE01B5D5DF91CF9108959091A108BE
:1026C000911116C0883029F432D91092750888E02B
:1026D000089580912F0690913006892B21F086E194
:1026E00026D986E0089581E08093750886E00895F4
:1026F00086E8089504C06150710981099109611546
:10270000710581059105B9F708951092A10880918E
:102710003906833069F028F4882391F0813031F054
:102720000DC0853039F0873039F008C087E809C01E
:1027300081EE07C089EE05C085E803C085E801C0C9
:1027400080E060917B0870917C0867C508951F93B5
:10275000CF93DF931F92CDB7DEB7182F662381F09A
:10276000ECE6F1E020819091990830E1939FC0015F
:102770001124922F9F70892B80831230E0F408C0BF
:10278000ECE6F1E080818F7080831230A0F40DC000
:10279000ECE6F1E0808190919108990F9E70817F25
:1027A000892B808310926F011AC0ECE6F1E08081E2
:1027B0008E60808314C0EDE7F8E0838D20E1829F76
:1027C000C00111249589892B80936F01ACE6B1E09B
:1027D0008C919489990F9E70817F892B8C9389E1CC
:1027E000A6D88931E1F71130A1F480919D08833199
:1027F00040F061E073E080E090E07CDF10929D08A3
:102800000DC06BEA70E080E090E074DF10929D08EC
:1028100005C06CE070E080E090E06CDF8FB78983EA
:10282000F8941981E9E3F1E08081826080830000FF
:10283000000080818D7F808360919E0870919F0849
:10284000FB01408150E04150510980E891E0BED544
:1028500081E08093A1081FBF0F90DF91CF911F915E
:102860000895FC019091A108911116C0F0937C0885
:10287000E0937B080780F085E02DF0939F08E093BC
:102880009E088081815080939D08EF2B39F0862F20
:10289000642F5DDF80E0089586E8089588EE08954E
:1028A0008091A1088130C1F4809142018295869582
:1028B00087708093390682E08093A10880912F066B
:1028C00090913006892B31F489E031D881E08093F2
:1028D0007508089586E12BC80895811124C0FB0175
:1028E0008081803D2CF08FEC80933A066FE012C01F
:1028F000873A2CF486EA80933A0660E00BC0809316
:102900003A06082E000C990B865A9F4F63E070E040
:10291000B6D46F5FE5E5F1E08081807F6F70682B52
:10292000608380E0089584EF089586EA80933A06F4
:102930006AE376E080E0D1DF61E080E00E94310769
:1029400060E180E00E94310780E008950C949A01D4
:1029500008950C94D201089580918400909185008F
:102960000895EFE6F0E080818D7F8083B19A08952D
:10297000B19AEFE6F0E08081826080830895EFE60F
:10298000F0E0808181608083B09A089580E890E0D3
:1029900082C30895E9E8F0E02081922B9083E8E873
:1029A000F0E09081892B80830895CF93DF931F926D
:1029B000CDB7DEB78FB78983F89489810F90DF9107
:1029C000CF9108958FBF0895CF93DF9380E890E073
:1029D000EBD266EA74E180E890E0D4D3CFE6D0E0B1
:1029E00088818160888369EA74E180E890E0EAD3B5
:1029F00088818D7F8883E1E8F0E080818160808339
:102A000088E0DF91CF9108951F920F920FB60F9239
:102A100011240BB60F922F933F934F935F936F93B5
:102A20007F938F939F93AF93BF93EF93FF93E09127
:102A30005906F0915A06309709F01995FF91EF91D8
:102A4000BF91AF919F918F917F916F915F914F91C6
:102A50003F912F910F900BBE0F900FBE0F901F90C4
:102A600018951F920F920FB60F9211240BB60F926A
:102A70002F933F934F935F936F937F938F939F9386
:102A8000AF93BF93EF93FF93E0915706F0915806F1
:102A9000309709F01995FF91EF91BF91AF919F91F8
:102AA0008F917F916F915F914F913F912F910F90F7
:102AB0000BBE0F900FBE0F901F9018951F920F9294
:102AC0000FB60F9211240BB60F922F933F934F9393
:102AD0005F936F937F938F939F93AF93BF93EF9386
:102AE000FF93E0915506F0915606309709F019953D
:102AF000FF91EF91BF91AF919F918F917F916F91D6
:102B00005F914F913F912F910F900BBE0F900FBE91
:102B10000F901F9018951F920F920FB60F921124CD
:102B20000BB60F922F933F934F935F936F937F93C7
:102B30008F939F93AF93BF93EF93FF93E0915306CF
:102B4000F0915406309709F01995FF91EF91BF91DC
:102B5000AF919F918F917F916F915F914F913F9135
:102B60002F910F900BBE0F900FBE0F901F901895D6
:102B70001F920F920FB60F9211240BB60F922F9344
:102B80003F934F935F936F937F938F939F93AF93F5
:102B9000BF93EF93FF93E0915106F0915206309767
:102BA00009F01995FF91EF91BF91AF919F918F918E
:102BB0007F916F915F914F913F912F910F900BBE3D
:102BC0000F900FBE0F901F9018951F920F920FB687
:102BD0000F9211240BB60F922F933F934F935F9355
:102BE0006F937F938F939F93AF93BF93EF93FF93D5
:102BF000E0914F06F0915006309709F01995FF913A
:102C0000EF91BF91AF919F918F917F916F915F9164
:102C10004F913F912F910F900BBE0F900FBE0F90D1
:102C20001F9018951F920F920FB60F9211240BB69A
:102C30000F922F933F934F935F936F937F938F9355
:102C40009F93AF93BF93EF93FF93E0914D06F09165
:102C50004E06309709F01995FF91EF91BF91AF9112
:102C60009F918F917F916F915F914F913F912F91A4
:102C70000F900BBE0F900FBE0F901F9018951F92D4
:102C80000F920FB60F9211240BB60F922F933F9312
:102C90004F935F936F937F938F939F93AF93BF9364
:102CA000EF93FF93E0914B06F0914C06309709F0BB
:102CB0001995FF91EF91BF91AF919F918F917F9166
:102CC0006F915F914F913F912F910F900BBE0F909D
:102CD0000FBE0F901F9018951F920F920FB60F9274
:102CE00011240BB60F922F933F934F935F936F93E3
:102CF0007F938F939F93AF93BF93EF93FF93E09155
:102D00004906F0914A06309709F01995FF91EF9125
:102D1000BF91AF919F918F917F916F915F914F91F3
:102D20003F912F910F900BBE0F900FBE0F901F90F1
:102D300018951F920F920FB60F9211240BB60F9297
:102D40002F933F934F935F936F937F938F939F93B3
:102D5000AF93BF93EF93FF93E0914706F09148063E
:102D6000309709F01995FF91EF91BF91AF919F9125
:102D70008F917F916F915F914F913F912F910F9024
:102D80000BBE0F900FBE0F901F9018951F920F92C1
:102D90000FB60F9211240BB60F922F933F934F93C0
:102DA0005F936F937F938F939F93AF93BF93EF93B3
:102DB000FF93E0914506F0914606309709F019958A
:102DC000FF91EF91BF91AF919F918F917F916F9103
:102DD0005F914F913F912F910F900BBE0F900FBEBF
:102DE0000F901F9018951F920F920FB60F921124FB
:102DF0000BB60F922F933F934F935F936F937F93F5
:102E00008F939F93AF93BF93EF93FF93E09143060C
:102E1000F0914406309709F01995FF91EF91BF9119
:102E2000AF919F918F917F916F915F914F913F9162
:102E30002F910F900BBE0F900FBE0F901F90189503
:102E40001F920F920FB60F9211240BB60F922F9371
:102E50003F934F935F936F937F938F939F93AF9322
:102E6000BF93EF93FF93E0914106F09142063097B4
:102E700009F01995FF91EF91BF91AF919F918F91BB
:102E80007F916F915F914F913F912F910F900BBE6A
:102E90000F900FBE0F901F9018951F920F920FB6B4
:102EA0000F9211240BB60F922F933F934F935F9382
:102EB0006F937F938F939F93AF93BF93EF93FF9302
:102EC000E0913F06F0914006309709F01995FF9187
:102ED000EF91BF91AF919F918F917F916F915F9192
:102EE0004F913F912F910F900BBE0F900FBE0F90FF
:102EF0001F9018951F920F920FB60F9211240BB6C8
:102F00000F922F933F934F935F936F937F938F9382
:102F10009F93AF93BF93EF93FF93E0913D06F091A2
:102F20003E06309709F01995FF91EF91BF91AF914F
:102F30009F918F917F916F915F914F913F912F91D1
:102F40000F900BBE0F900FBE0F901F9018951F9201
:102F50000F920FB60F9211240BB60F922F933F933F
:102F60004F935F936F937F938F939F93AF93BF9391
:102F7000EF93FF93E0913B06F0913C06309709F008
:102F80001995FF91EF91BF91AF919F918F917F9193
:102F90006F915F914F913F912F910F900BBE0F90CA
:102FA0000FBE0F901F9018951F93CF93DF931F9222
:102FB000CDB7DEB72FB72983F8941981009709F4AC
:102FC00064C08837910549F461E080E00E943107D0
:102FD00060E180E00E94310758C0803C910529F4EF
:102FE00062E080E00E94310750C08C34910529F4E2
:102FF00064E080E00E94310748C08038910529F4E0
:1030000068E080E00E94310740C08434910529F4D3
:1030100060E280E00E94310738C0803B910529F4CE
:1030200060E480E00E94310730C0883B910529F4BC
:1030300060E880E00E94310728C0883C910529F4AF
:1030400061E081E00E94310720C08039910529F4B8
:1030500068E081E00E94310718C0803A910529F4A8
:1030600060E181E00E94310710C0803221E09207C8
:1030700029F460E281E00E94310707C08334914067
:1030800021F460E481E00E9431071FBF0F90DF91BF
:10309000CF911F9108951F93CF93DF931F92CDB7C8
:1030A000DEB72FB72983F8941981009709F464C01B
:1030B0008837910549F461E080E00E94490760E1AA
:1030C00080E00E94490758C0803C910529F462E0E5
:1030D00080E00E94490750C08C34910529F464E0D7
:1030E00080E00E94490748C08038910529F468E0D3
:1030F00080E00E94490740C08434910529F460E2D1
:1031000080E00E94490738C0803B910529F460E4C3
:1031100080E00E94490730C0883B910529F460E8AF
:1031200080E00E94490728C0883C910529F461E0AD
:1031300081E00E94490720C08039910529F468E0A8
:1031400081E00E94490718C0803A910529F460E1A6
:1031500081E00E94490710C0803221E0920729F4E3
:1031600060E281E00E94490707C08334914021F466
:1031700060E481E00E9449071FBF0F90DF91CF916B
:103180001F9108958038910529F470935A06609331
:10319000590608958039910529F470935206609379
:1031A00051060895803A910529F470934A06609378
:1031B000490608958032914021F47093420660934D
:1031C000410608958038910529F47093580660935C
:1031D000570608958039910529F47093500660933D
:1031E0004F060895803A910529F47093480660933C
:1031F000470608958032914021F470934006609311
:103200003F0608950E94CD060E9414070E94850B78
:103210000E94D80D0E94AF05F9CF0C94600208956A
:10322000CF93DF93EC010E94210289819A810E9451
:10323000B10BDF91CF910895DB018F939F9349D01C
:10324000BF91AF91A29F800D911DA39F900DB29F42
:10325000900D11240895AA1BBB1B51E107C0AA1FA2
:10326000BB1FA617B70710F0A61BB70B881F991F27
:103270005A95A9F780959095BC01CD01089597FBCB
:10328000072E16F4009406D077FD08D0E4DF07FC83
:1032900005D03EF4909581959F4F08957095619566
:1032A0007F4F0895EE0FFF1F881F8BBF0790F69189
:1032B000E02D1994A29FB001B39FC001A39F700D90
:1032C000811D1124911DB29F700D811D1124911D2E
:1032D0000895F0DFA59F900DB49F900DA49F800DE1
:1032E000911D11240895B7FFF4CFF3DF821B930BD8
:1032F00008950024A7FD00942A0F301D401D501D85
:10330000601D701D801D901D08950024A7FD009470
:103310002A173005400550056005700580059005A9
:1033200008958F929F92AF92BF92CF92DF92EF92C9
:10333000FF92CF93DF93EC01688179818A819B8131
:10334000611571058105910521F464E279ED8BE544
:1033500097E02DE133EF41E050E041D049015A01BF
:103360009B01AC01A7EAB1E4B4DF6B017C01ACEED8
:10337000B4EFA5019401B9DFDC01CB018C0D9D1DDB
:10338000AE1DBF1DB7FF03C00197A109B0488883D8
:103390009983AA83BB839F77DF91CF91FF90EF90B2
:1033A000DF90CF90BF90AF909F908F900895B9CF4E
:1033B00080E092E0B6CFA0E0B0E08093000290936E
:1033C0000102A0930202B09303020895FB01DC0105
:1033D00002C001900D9241505040D8F70895052E3B
:1033E00097FB16F400940FD057FD05D014D007FCBE
:1033F00002D046F408C050954095309521953F4F36
:103400004F4F5F4F089590958095709561957F4FD0
:103410008F4F9F4F0895A1E21A2EAA1BBB1BFD01DF
:103420000DC0AA1FBB1FEE1FFF1FA217B307E407A3
:10343000F50720F0A21BB30BE40BF50B661F771FFB
:10344000881F991F1A9469F76095709580959095DB
:0E3450009B01AC01BD01CF010895F894FFCFA0
:10345E0001000000020019001900FFFF0100FFFF2C
:10346E003A272727272747575F57414954272727AA
:10347E002727273A3A20202020202020532D303293
:10348E002020202020202020203A00003A27272725
:10349E00272727494E414354495645272727272793
:1034AE00273A3A20202020202020532D3030202073
:1034BE00202020202020203A003A27574149545FEF
:1034CE004144564552544953454D454E54273A3A78
:1034DE0020202020202020532D303120202020207D
:1034EE00202020203A003A20202020204E616476B1
:1034FE002A546164763A202020203A3A2020202057
:10350E0020202046696E6973682020202020203AF2
:10351E00003A20202020202047575F454E4420208F
:10352E002020202020203A3A2E2E2E2E2E2E2E2EE9
:10353E00532D30322E2E2E2E2E2E2E2E3A003A2097
:10354E002020202020202062726F6B6572202020A8
:10355E002020203A3A20202020202020526561642D
:10356E00793D3D3120202020203A003A2020202095
:10357E00202047575F454E44202020202020202029
:10358E003A3A2E2E2E2E2E2E2E2E532D30302E2E0D
:10359E002E2E2E2E2E2E3A003A20202020202020B5
:1035AE0020544144563A2020202020203A3A202010
:1035BE00202020202046696E69736820202020205C
:1035CE00203A003A202020202020202062726F6BAB
:1035DE0065722020202020203A3A20202020202012
:1035EE002052656164793D3D3020202020203A0034
:1035FE003A20202020202047575F454E442020208F
:10360E0020202020203A3A2E2E2E2E2E2E2E2E53D5
:0E361E002D30312E2E2E2E2E2E2E2E3A000066
:00000001FF
