:10000000B8C00000D7C00000D5C00000D3C00000B9
:10001000D1C00000CFC00000CDC00000CBC00000A8
:10002000C9C00000C7C00000C5C00000C3C00000B8
:10003000C1C00000BFC00000BDC00000BBC00000C8
:10004000B9C000000C946B160C9498160C94C5164D
:100050000C943E16AFC00000ADC00000ABC0000065
:10006000A9C00000A7C00000A5C00000A3C00000F8
:10007000A1C000009FC000009DC000009BC0000008
:100080000C941F170C944C170C9479170C94F216BF
:1000900091C000008FC000008DC000008BC0000028
:1000A00089C0000087C000000C94D3170C9400187E
:1000B0000C942D180C94A6177DC000000C94871882
:1000C0000C94B4180C94E1180C945A1873C00000E6
:1000D00071C000006FC000006DC000006BC0000068
:1000E00069C000000C94EB100C94F5100C94E11016
:1000F0000C9460100C948B100C94FF100C94351021
:100100000C94B61057C0000055C0000053C000004A
:1001100051C000004FC000000C9413110C94091141
:100120000C941D110C9427110C9431110C943B115B
:100130000C944511B80DDF0DD30DEC0DD30DAB0DA7
:10014000C50DD30DD30DD30DD30DD30D7F0DD30D11
:10015000D30DD30DD30DD30DD30D0B0ED30DD30D66
:10016000440E04030302020100FFFEFDFCFBF9F74D
:10017000F4EF11241FBECFEFD1E8DEBFCDBF00E00A
:100180000CBF14E0A0E0B2E0E2EDF6E300E00BBF4C
:1001900002C007900D92A238B107D9F729E0A2E872
:1001A000B4E001C01D92AD35B207E1F70E943C1AE0
:1001B0000C94671B25CF0E94E6152091860422230C
:1001C000D9F040915C0930E020918604642F732FB0
:1001D0000E94651AFB018FEF9FEF642F732F0E941F
:1001E000651A30E0629FC001639F900D729F900D71
:1001F00011248E0F9F1F089560915C0970E00E948A
:10020000651ACB0108950E94EB150E940F161092FB
:100210008204109283041092840410928504109238
:100220008804109287040C941C160E94F9151092F1
:1002300086040895E8DFF9DF0C9400160F931F93EE
:10024000CF93DF93EC010E94E6158C01BE0180E0A4
:1002500090E020915C0930E040E050E00E94561AA6
:10026000DC01CB01A80160E070E0480F591F6A1F54
:100270007B1F4093820450938304609384047093A3
:1002800085044091820450918304609184047091AC
:100290008504AB016627772740938204509383043B
:1002A0006093840470938504409182045091830488
:1002B00060918404709185044115510561057105B3
:1002C00091F0409182045091830460918404709174
:1002D00085040196080F191F109388040093870462
:1002E0000E94EB1508C0080F191F10938804009393
:1002F00087040E94F21580918704909188048436C7
:10030000910530F48C599F4F909388048093870413
:1003100080918704909188040E940416DF91CF9108
:100320001F910F910895109286040E941E168093CB
:100330005C0908958091820490918304A0918404C3
:10034000B09185040097A105B105C9F080918204A0
:1003500090918304A0918404B09185040197A10930
:10036000B1098093820490938304A0938404B09392
:1003700085040097A105B10511F40E94F215809142
:1003800086048F5F8093860490915C09891748F0FA
:1003900010928604E0918904F0918A04309709F064
:1003A000199508950E94EB15E0918B04F0918C044F
:1003B000309709F01995089590938A0480938904E1
:1003C000089590938C0480938B040895DC0187E05A
:1003D000820F8C939CE011969C93119712966C93CC
:1003E000129713961C92139791E014969C9314976E
:1003F00015961C92159716969C931697121613062F
:100400004CF4FA011796420F531F91919D93E417F4
:10041000F507D9F790E00895FC0184E0808380E13E
:100420008183128281E0838384E090E0089581E0FB
:1004300090E09093F8088093F708089504C0615005
:100440007109810991096115710581059105B9F756
:1004500008950F931F93CF93DF9320919D043091C4
:100460009E0421303105E1F5EC0107E117E081E759
:10047000F80111928A95E9F7EF81F88581E7D801B3
:1004800001900D928A95E1F789819A810E94560C1C
:10049000F80183858D3059F410929E0410929D04CA
:1004A0008DE090E090930D0280930C0219C08F3084
:1004B00059F410929E0410929D048FE090E0909366
:1004C0000D0280930C020CC08E3051F410929E04E9
:1004D00010929D048EE090E090930D0280930C02A8
:1004E000DF91CF911F910F9108950895CF93DF93DE
:1004F000CDB7DEB7E0970FB6F894DEBF0FBECDBF25
:1005000080E3EEE0F2E0DE01119601900D928A9513
:10051000E1F780910A0290910B028130910561F41C
:1005200082E090E090930B0280930A0261E874E805
:100530008EE190E083DF4AC08230910569F483E068
:1005400090E090930B0280930A0241E050E060E358
:10055000CE01019681D53AC083309105B9F48091DE
:10056000F7089091F808019789F51092F808109211
:10057000F70841E050E060E382ED92E06DD584E061
:1005800090E090930B0280930A0220C00497F1F44C
:1005900010920B0210920A0241E050E060E383E007
:1005A00093E05AD581E090E090930B0280930A0289
:1005B00080919F049091A0049093A2048093A10441
:1005C0008FEF9FEF9093A00480939F04E0960FB667
:1005D000F894DEBF0FBECDBFDF91CF910895009795
:1005E00021F45E9AA29A729A08958130910521F4BD
:1005F0005E98A29A729A08958230910521F45E9ACB
:10060000A298729A08958330910521F45E9AA29A75
:1006100072980895049719F45E98A298729A0895B2
:10062000009721F45E9AA29A729A0895019719F49C
:100630005E98A29872980895CF93DF93CDB7DEB7F6
:10064000EE970FB6F894DEBF0FBECDBF80E3EFE3A9
:10065000F2E0DE01119601900D928A95E1F780910A
:100660000A0290910B028130910561F482E090E0E2
:1006700090930B0280930A0261E874E88EE190E0A7
:10068000DDDE27C28230910599F483E090E09093FB
:100690000B0280930A0241E050E060E3CE01019634
:1006A000DBD481E090E090939E0480939D0411C27E
:1006B0008330910509F0DEC1609918C06BEA71E1E1
:1006C00084E090E0BBDE80918F04909190040196CD
:1006D0009093900480938F04019709F088C181E082
:1006E00090E090939A048093990481C18091990439
:1006F00090919A04019761F410929A0410929904CF
:1007000083E090E09093A4048093A304E6D36FC1A8
:100710008091F7089091F808019789F41092F808F1
:100720001092F70880918F049091900490938E041A
:1007300080938D041092900410928F0458C1809180
:100740008D0490918E048130910589F410928E046D
:1007500010928D0441E050E060E384E393E07CD4A8
:1007600081E090E0909398048093970440C1209199
:1007700097043091980421303105A1F41092980427
:100780001092970466E573E288E090E057DE8CE013
:1007900090E0909309028093080210920502109253
:1007A000040225C140910802509109024C305105C4
:1007B00009F043C06091040270910502672B09F0B3
:1007C0003CC08FEF9FEF90930902809308029093B3
:1007D0000502809304028EE0E8EFF3E0DE01D1969B
:1007E00001900D928A95E1F72DE030E0AE014F5C6B
:1007F0005F4F60E081E898E0E9DD80939B0490938F
:100800009C0440E050E0682F81E898E025D41092E5
:100810009C0410929B0481E090E090939604809356
:100820009504DDDE1092A00410929F0484E090E015
:1008300090930B0280930A02DAC08230910589F40A
:1008400010928E0410928D0441E050E060E385E642
:1008500093E002D482E090E0909398048093970410
:10086000C6C022303105B1F410929804109297045A
:1008700066E573E288E090E0E1DD8CE090E0909343
:1008800009028093080281E090E090930502809332
:100890000402ADC04C30510509F03EC06091040225
:1008A0007091050261307105B9F58FEF9FEF90935C
:1008B00009028093080290930502809304028DE060
:1008C000E6E0F4E0DE01D19601900D928A95E1F721
:1008D0002CE030E0AE014F5C5F4F60E281E898E0D1
:1008E00075DD80939B0490939C0440E050E0682F5A
:1008F00081E898E0B1D310929C0410929B0481E0AF
:1009000090E09093A00480939F0484E090E0909303
:100910000B0280930A026BC0039789F410928E0435
:1009200010928D0441E050E060E386E993E094D3B7
:1009300083E090E0909398048093970458C023300C
:100940003105B1F4109298041092970466E573E2B1
:1009500088E090E073DD8CE090E090930902809352
:10096000080282E090E090930502809304023FC069
:100970004C305105E1F580910402909105020297F7
:10098000B1F58FEF9FEF9093090280930802909347
:100990000502809304028DE0E3E1F4E0DE01D196EC
:1009A00001900D928A95E1F72CE030E0AE014F5CAA
:1009B0005F4F60E481E898E009DD80939B049093A9
:1009C0009C0440E050E0682F81E898E045D3109205
:1009D0009C0410929B0481E090E09093A00480938B
:1009E0009F0484E090E090930B0280930A02809130
:1009F0000C0290910D020D9769F48FEF9FEF909389
:100A00000D0280930C0281E090E090939204809319
:100A100091045FC08091910490919204019709F034
:100A200058C0809127078230B1F41092920410923E
:100A3000910481E090E09093940480939304F0DD1E
:100A40001092A00410929F0484E090E090930B0217
:100A500080930A023EC01092920410929104109268
:100A6000A00410929F0484E090E090930B02809386
:100A70000A022FC08430910561F485E090E09093E4
:100A80000B0280930A0261E874E88EE190E0D6DC04
:100A900020C00597F1F410920B0210920A0241E077
:100AA00050E060E387EC93E0D7D281E090E0909350
:100AB0000B0280930A0280919F049091A00490936E
:100AC000A2048093A1048FEF9FEF9093A0048093E2
:100AD0009F04EE960FB6F894DEBF0FBECDBFDF9138
:100AE000CF910895CF93DF93CDB7DEB7E0970FB6E0
:100AF000F894DEBF0FBECDBF80E3E0E7F2E0DE0199
:100B0000119601900D928A95E1F780910A029091D9
:100B10000B028130910561F482E090E090930B022A
:100B200080930A0261E874E88EE190E087DC18C1E6
:100B30008230910599F483E090E090930B028093CA
:100B40000A0241E050E060E3CE01019685D281E0E7
:100B500090E090939E0480939D0402C183309105A0
:100B600009F0CFC080910C0290910D020D9769F4AD
:100B70008FEF9FEF90930D0280930C0281E090E045
:100B800090939204809391047BC080919104909102
:100B90009204019709F061C080912707811116C066
:100BA000109292041092910482E090E09093960447
:100BB0008093950435DD1092A00410929F0484E088
:100BC00090E090930B0280930A0247C08230B1F408
:100BD000109292041092910481E090E0909394041A
:100BE000809393041DDD1092A00410929F0484E072
:100BF00090E090930B0280930A022FC0833091F40F
:100C0000109292041092910480E090E009DD10921D
:100C1000A00410929F0484E090E090930B028093D4
:100C20000A021BC08130C9F4109292041092910400
:100C300080910602909107029093A4048093A304EC
:100C40004CD183E090E09093A00480939F0484E0D3
:100C500090E090930B0280930A0280910C02909195
:100C60000D020F9769F48FEF9FEF90930D02809321
:100C70000C0281E090E0909398048093970470C0F8
:100C80008091970490919804019781F410929804B0
:100C90001092970466E571E681E590E0CFDB80E194
:100CA00090E090930902809308025AC08091080254
:100CB00090910902409709F053C08FEF9FEF9093F6
:100CC00009028093080285ED97E0A6DB80939B04E0
:100CD00090939C0440E050E0682F85ED97E0BCD1F4
:100CE00010929C0410929B0482E090E09093A004E8
:100CF00080939F0484E090E090930B0280930A021B
:100D00002FC08430910561F485E090E090930B0250
:100D100080930A0261E874E88EE190E08FDB20C0E6
:100D20000597F1F410920B0210920A0241E050E094
:100D300060E380E294E090D181E090E090930B0238
:100D400080930A0280919F049091A0049093A20442
:100D50008093A1048FEF9FEF9093A00480939F0452
:100D6000E0960FB6F894DEBF0FBECDBFDF91CF91F6
:100D70000895CF93DF93CDB7DEB7E0970FB6F89421
:100D8000DEBF0FBECDBF80E3E1EAF2E0DE011196E7
:100D900001900D928A95E1F780910A0290910B02E1
:100DA0008130910561F482E090E090930B02809392
:100DB0000A0261E874E88EE190E040DB67C08230AF
:100DC000910599F483E090E090930B0280930A02DE
:100DD00041E050E060E3CE0101963ED181E090E039
:100DE00090939E0480939D0451C083309105F9F443
:100DF00080910C0290910D020E9709F047C08FEF81
:100E00009FEF90930D0280930C0283E090E090930B
:100E100096048093950404DC1092A00410929F0421
:100E200084E090E090930B0280930A022FC08430FC
:100E3000910561F485E090E090930B0280930A02A3
:100E400061E874E88EE190E0F9DA20C00597F1F4EA
:100E500010920B0210920A0241E050E060E381E53B
:100E600094E0FAD081E090E090930B0280930A0224
:100E700080919F049091A0049093A2048093A10478
:100E80008FEF9FEF9093A00480939F04E0960FB69E
:100E9000F894DEBF0FBECDBFDF91CF910895809152
:100EA000A1049091A204009711F4C6CB089581305B
:100EB000910511F417CE08958230910511F459CFA0
:100EC0000895039709F412CB0895B1CA089589EFE4
:100ED00098E0CCD2811140C10895EF92FF920F9318
:100EE0001F93A091A304B091A40420E432E44FE046
:100EF00050E00E94AD1AAB01BC01E12CF12C05E6DB
:100F000017E020E08091F908BED21F910F91FF9069
:100F1000EF9008954F925F926F927F928F92AF926F
:100F2000CF92EF920F931F93CF93DF93CDB7DEB79E
:100F3000A9E8B0E0AE19B109FD01E955FB4F3F0149
:100F4000EE2079F0D80144244A944E0C512C9FEFA6
:100F5000491A590A040D151D9D919193A017B107C7
:100F6000D9F7423061F43BE03E0DD3014091430993
:100F7000509144095E934E9340E050E826C0D3015F
:100F8000189731E13E0DE7E3F9E090819C93918160
:100F900011969C931197928112969C93129793812C
:100FA00013969C931397948114969C931497958110
:100FB00015969C931597968116969C9316979781F4
:100FC00017969C93179740E050EC823059F4FB0140
:100FD00080819181FD01929382933F01CA018064D7
:100FE00098600FC03D01F8E06F1A71083A5F88E021
:100FF000FB01D30101900D928A95E1F7CA0180644B
:101000009C604EEF5AECF301329751834083319745
:101010002083C11002C0816001C08162F301359755
:1010200091838083D30116973C93B093AF04A09330
:10103000AE04482D6A2D87EA94E00E94F214DF91F5
:10104000CF911F910F91EF90CF90AF908F907F90A5
:101050006F905F904F9008958F92AF92CF92EF92E2
:101060000F931F93CF93DF931F921F92CDB7DEB7DD
:101070004115510529F423E030E03A83298307C064
:101080004130510521F42EE131EC3A83298320913E
:10109000A5043091A604A9014F5F5F4F5093A604A9
:1010A0004093A504812C6894AA24A1F8C12CE62EB3
:1010B0008C0142E0BE016F5F7F4F82E02BDF0F901B
:1010C0000F90DF91CF911F910F91EF90CF90AF9044
:1010D0008F90089586E00C941F140895CF93DF93AA
:1010E00000D000D0CDB7DEB746D037D037D30BD73E
:1010F0008111FFCF789484E090E09A8389838EEF0A
:101100009AEC9C838B838BE08D831E82BE016F5F84
:101110007F4F83E50E944E12BE016D5F7F4F80E5D9
:101120000E944E12BE016B5F7F4F80E00E944E1204
:10113000BE016A5F7F4F84E00E944E1262E080E051
:101140000E942E15C7DF26960FB6F894DEBF0FBE9D
:10115000CDBFDF91CF910895FFCF8DB18E7F9EB12E
:101160005E9A569AA29A9A9A95609EB984608DB9B1
:101170000895ADCE0895CF93DF931F92CDB7DEB71C
:101180008FEF80936400809365008FB78983F89414
:1011900089815F9350E85093610050E05093610063
:1011A0005F918FBF0F90DF91CF910895CF93DF9321
:1011B0001F92CDB7DEB79FB79983F894998182309B
:1011C00040F4E82FF0E0EC59FF4F609580816823F0
:1011D00060839FBF0F90DF91CF910895CF93DF93EE
:1011E0001F92CDB7DEB79FB79983F894998182306B
:1011F00038F4E82FF0E0EC59FF4F8081682B6083D2
:101200009FBF0F90DF91CF9108958091360588237D
:1012100019F081E080932E0908951F93CF93DF93F7
:101220001F92CDB7DEB78091FA089091FB08019626
:101230009093FB088093FA088FB78983F8941981FB
:10124000809135058F3FF1F190E0FC01EE0FFF1F1B
:101250009C01220F331F220F331F220F331FE20F77
:10126000F31FE450F74F218521112CC0FC01EE0F34
:10127000FF1F880F991F880F991F880F991FE80F6C
:10128000F91FE450F74F80819181A281B3812091B1
:10129000FA083091FB082A173B07A1F40E941E01AF
:1012A0008091350590E0FC01EE0FFF1F880F991F1C
:1012B000880F991F880F991FE80FF91FE450F74F07
:1012C00081E081871FBF0F90DF91CF911F9108951B
:1012D0000F931F93CF93DF93C82F8F3F09F462C002
:1012E0000091FA081091FB080E94DB004091FA0877
:1012F0005091FB080417150799F7D0E060E070E003
:10130000FE01EE0FFF1F9E01220F331F220F331F1E
:10131000220F331FE20FF31FE450F74FBA01552796
:101320004427A0E0B0E0482B592B6A2B7B2B80810F
:101330009181A281B381841B950BA60BB70B8F3FC4
:101340002FEF9207A2072FE7B20740F59E01220F69
:10135000331F220F331F220F331FFE01EE0FFF1F1B
:10136000E20FF31FE450F74F218521111DC00097B4
:1013700021E0A207B105C0F40E941E01CE01880F32
:10138000991FCC0FDD1FCC0FDD1FCC0FDD1FC80F49
:10139000D91FC450D74F81E0898706C081E0809370
:1013A0002E0902C00E940301DF91CF911F910F917E
:1013B000089580912E09882309F457C010922E09B0
:1013C00080913605882309F450C0809134058F3F01
:1013D00059F4809133058F3F39F48091350580931E
:1013E00033058093340515C0209135058091330570
:1013F00090E0FC01EE0FFF1F880F991F880F991FC7
:10140000880F991FE80FF91FE450F74F20872093AA
:1014100033058091350590E0FC01EE0FFF1F880F2A
:10142000991F880F991F880F991FE80FF91FE45023
:10143000F74F8085809335052091330530E0F90121
:10144000EE0FFF1F220F331F220F331F220F331FF8
:10145000E20FF31FE450F74F9FEF9087909136050E
:10146000915090933605911133CF0895FC019091DE
:101470003205953030F490839F5F9093320580E081
:10148000089584EF08952F923F924F925F926F924A
:101490007F928F929F92AF92BF92CF92DF92EF9204
:1014A000FF920F931F93CF93DF93CDB7DEB72797AC
:1014B0000FB6F894DEBF0FBECDBF382E4A015B01D8
:1014C000222EFF82EE826894442442F8481608F4E3
:1014D00000C10115110509F4FEC0C82ED12CF6017A
:1014E000EE0FFF1FC601880F991F880F991F880FE5
:1014F000991FE80FF91FE450F74F84819581892BDC
:1015000009F0EBC0E090FA08F090FB080E94DB00C5
:101510004091FA085091FB08E416F50699F760E04F
:1015200070E0BA01552744272C01612C712C4A82A6
:101530005B826C827D82442A552A662A772A222081
:1015400021F021E0221691F0CAC0B501A401405853
:1015500051096109710940385F4F6F4F7F4708F0AB
:10156000C0C0840C951CA61CB71C10C0B501A401FA
:1015700040585109610971094419550966097709EB
:1015800040385F4F6F4F7F4708F0ADC08FB78983FA
:10159000F894F9800EDFC601880F991F880F991FF4
:1015A000880F991FF601EE0FFF1FE80FF91FE45097
:1015B000F74F80829182A282B382158304834E808A
:1015C0005F80578246821186B0913605BF5FB09327
:1015D0003605A0913505AF3F21F0B11107C0EA2EC5
:1015E00084C030923505832D73DE70C0EA2E4A2FF9
:1015F00050E04F3F09F466C0842F90E0BC01660FB5
:10160000771F9C01220F331F220F331F220F331F1E
:10161000260F371FF901E450F74F40805180628058
:1016200073809501840104191509260937092801D9
:1016300039011FEF4116510661061FE7710670F46C
:10164000FB01880F991F880F991F880F991FE80FBA
:10165000F91FE450F74FE42E408534C0F601EE0F39
:10166000FF1FCC0CDD1CCC0CDD1CCC0CDD1CEC0DF0
:10167000FD1DE450F74F4087FC01EE0FFF1F880F60
:10168000991F880F991F880F991FE80FF91FE450C1
:10169000F74F1186A41305C030923505832D18DE4F
:1016A00015C08E2D90E0FC01EE0FFF1F880F991FD3
:1016B000880F991F880F991FE80FF91FE450F74F03
:1016C000308604C05F5FB51394CF0FC0FFBE80E0CB
:1016D0002CC088EF2AC088EF28C083EF26C088EF8F
:1016E00024C088EF22C088EF20C08E2D90E0FC013E
:1016F000EE0FFF1F880F991F880F991F880F991FE2
:10170000E80FF91FE450F74F3086F601EE0FFF1F88
:10171000CC0CDD1CCC0CDD1CCC0CDD1CEC0DFD1D43
:10172000E450F74F8FEF8087D1CF27960FB6F8940C
:10173000DEBF0FBECDBFDF91CF911F910F91FF9004
:10174000EF90DF90CF90BF90AF909F908F907F9061
:101750006F905F904F903F902F90089510923605B4
:1017600010922E091092FB081092FA088FEF8093C6
:1017700035058093340580933305ECEFF8E02EE2D5
:1017800039E08087158214823A96E217F307C9F789
:10179000109232058DE099E00E94DC0185E099E02D
:1017A0000E94E1010C94930108950F931F93CF932E
:1017B000DF931F921F92CDB7DEB78FB78A83F8945D
:1017C0001A81F7DD1FBF1FEF012F37C08FB7898345
:1017D000F89429818091340590E0DC01AA0FBB1FA9
:1017E000880F991F880F991F880F991FA80FB91F7D
:1017F000A450B74F18969C9118971496ED91FC91B0
:10180000159716964D915C91179718961C931897FB
:1018100015961C921E92149717961C921E9216975C
:1018200019961C92909334059F3F11F40093330551
:101830002FBF309711F0CA011995809134058F3F61
:1018400029F60F900F90DF91CF911F910F9108957E
:1018500080E00895AACF0895CF93DF9387E395E0C2
:10186000B0D0CCE3D5E088E495E099838883BE01CD
:1018700087E395E0ADD083ED95E09D838C8360E4B4
:1018800075E087E395E0A4D08EE596E09987888798
:1018900064E475E087E395E09BD0DF91CF910895F4
:1018A00060E070E087E395E0B8C00895009721F00C
:1018B000BC0187E395E08CC008958F929F92AF9210
:1018C000BF92CF92DF92EF92FF920F931F93CF932D
:1018D000DF931F92CDB7DEB72FB72983F8948980A5
:1018E000DC0114962C91222309F456C07A01962E1D
:1018F0005C01FC0100811181452BE1F0011511050E
:1019000009F44DC0680101C08901D70112966D919B
:101910007C911397ED91FC91D8018D919C91199533
:10192000811109C0F8012281338168012115310537
:1019300059F735C068010115110599F1911031C0B1
:10194000D5018D919C9111970817190731F4F80171
:10195000828193818D939C9308C0D80112968D91BA
:101960009C911397F60193838283D50112968D91F2
:101970009C9113970817190721F41396DC92CE92C5
:101980001297F50184818150848380819181892B14
:1019900041F41382128205C000E010E002C000E0B2
:1019A00010E08FBEC8010F90DF91CF911F910F9172
:1019B000FF90EF90DF90CF90BF90AF909F908F906F
:1019C0000895FC01118210821382128214820895FC
:1019D000CF93DF931F92CDB7DEB7FC018FB789831A
:1019E000F89499818481811103C07183608306C05A
:1019F000A281B38113967C936E9312977383628353
:101A0000DB0113961C921E92129784818F5F848350
:101A10009FBF0F90DF91CF910895AB0160E04DCF54
:101A2000089504C06150710981099109611571051A
:101A300081059105B9F708950F931F93CF93809176
:101A400041018F718830A1F481E080934F0189E0DA
:101A500080934201C3E00FE411E0F801808180FD32
:101A600007C063E970E080E090E0DBDFC150A9F7D8
:101A7000CF911F910F9108951F93CF93DF931F92E2
:101A8000CDB7DEB7182F809156098F3051F51F3032
:101A900009F438C110925A0981E791E1E1D28FB778
:101AA0008983F89499817894E9E3F1E080818D7FCE
:101AB000808380915A098823E1F39FBF8FEF809341
:101AC0004F0188E480934E01EDE4F1E08081846071
:101AD0008083183011F0133021F488E08093560988
:101AE00011C1812F90E0FC013397E731F10508F037
:101AF0005AC08827E656FF4F8F4F0C948C1A83E00C
:101B000080934201EDE4F1E080818B7F80830E942D
:101B1000121B80936D01EEE6F1E080819770887F63
:101B2000892B80838FEF80934F0180E880934E0153
:101B300062E070E080E090E074DFE9E3F1E0808152
:101B4000826080836FE270E080E090E06ADF8FE087
:101B500080935609D7C080915609883021F188E0DA
:101B60008093420162E070E080E090E05ADF1BC0A9
:101B7000809156098830B9F083E08093420162E099
:101B800070E080E090E04DDF0EC080915609883013
:101B900049F018F4863039F409C0863139F08931BA
:101BA00011F404C049DFE1E4F1E0A6C089E08093CC
:101BB000420162E070E080E090E033DFF4CF80919A
:101BC0005609883019F0893071F302C035DFEBCF48
:101BD00084E080934201E7CF80915609893041F03B
:101BE00018F4883071F0DFCF863111F08931D9F6E1
:101BF00086E08093420162E070E080E090E011DFD7
:101C0000D2CF1ADF86E08093420162E070E080E08C
:101C100090E007DFC8CF80915609883091F018F422
:101C20008630C9F0C0CF893019F0893109F0BBCFB7
:101C300086E18093420162E070E080E090E0F1DEB6
:101C4000B2CFFADE86E18093420162E070E080E08C
:101C500090E0E7DEA8CF89E08093420162E070E087
:101C600080E090E0DEDE809141018F718093560923
:101C7000893009F047C086E18093420162E070E05C
:101C800080E090E0CEDE8FCF80915609883051F110
:101C900018F4863079F087CF893019F0863151F009
:101CA00082CF89E18093420162E070E080E090E0C1
:101CB000B8DE79CF89E08093420162E070E080E095
:101CC00090E0AFDE809141018F7180935609893099
:101CD000C9F489E18093420162E070E080E090E025
:101CE000A0DE61CFA9DE89E18093420162E070E06D
:101CF00080E090E096DE57CF80818F718093560907
:101D00008F31D1F30F90DF91CF911F910895CF9331
:101D1000DF9380912F09882319F180915B0981114C
:101D20001FC08091E9069091EA06892B41F48BE867
:101D3000B7DD9093EA068093E906892B89F010922B
:101D40002F09CCE4D1E088818F77888363E070E04D
:101D500080E090E066DE88818068888386E18CDEA2
:101D600080913409882341F060E070E080E399E0DD
:101D700054DE009709F024D580915B09823009F484
:101D800085D5DF91CF91089504C061507109810913
:101D900091096115710581059105B9F70895FF92C3
:101DA0000F931F93CF93DF9386E066DE8630E1F7D3
:101DB000E5E5F1E080818F77808310924E01689491
:101DC000FF24F3F8C0E0D0E006E411E0F8019081D0
:101DD000CC0FDD1FCC0FDD1F9076292F30E036951C
:101DE0002795329522952F7023273F702327C22BEA
:101DF000D32B62E070E080E090E0C6DFFA94F1104F
:101E0000E5CF83E039DE8FEF80934F0188E4809344
:101E10004E01CE010E94151BDF91CF911F910F91B2
:101E2000FF900895FF920F931F93CF93DF93F82EA7
:101E3000C9E3D1E088818D7F888361E471E080E02F
:101E400090E0A2DF88818E7F888362E070E080E08E
:101E500090E09ADF88818160888366E870E080E0A6
:101E600090E092DF809141018F71CAE001E411E0BE
:101E70000AC066E870E080E090E086DFF8018081CB
:101E80008F71C150C9F18830A1F78093560987DF5F
:101E90000E94121B80936D01EEE6F1E08081977045
:101EA000887F892B8083808180628083ECE4F1E0ED
:101EB00080818068808388E480934E018FEF8093D7
:101EC0005601EDE4F1E080818C7F82608083AAE49A
:101ED000B1E08C91807F83608C9380818860808367
:101EE000808184608083F11030D27DD210925B09B2
:101EF00010922F0980E001C085E8DF91CF911F91FA
:101F00000F91FF900895CF92DF92EF92FF920F937F
:101F10001F93CF93DF9314BE80E1809335018093AC
:101F20003401809333018093320192DC81116DC0C2
:101F300060E481E03BD9C9E3D1E088818160888396
:101F400088818D7F88836BEF71E080E090E01CDFFB
:101F500088818E7F888362E070E080E090E014DF0B
:101F600088818160888366E870E080E090E00CDF23
:101F7000809141018F71CAE001E411E00BC066E875
:101F800070E080E090E000DFF80180818F71C15047
:101F900009F451C0883099F78093560980915C010B
:101FA000843909F048C035C00E94121BF8018193A2
:101FB0008F01EC15FD05C1F7F701208131814281C8
:101FC00053816481758186819781AFEF0E94B31A36
:101FD000ADEF0E94BF1A21F018F007E319E0E4CF3B
:101FE0008FE491E138D080E691E130D081E791E152
:101FF00037D032DC8BE854DC9093EA068093E90614
:1020000080E399E0DEDCCBD517C0C5E815C0C5E894
:1020100013C081E007DFC82F8111F9CF0F2EF7E33E
:10202000EF2EF9E0FF2EF02D0F2EFFE3CF2EF9E07B
:10203000DF2EF02DC1CFC5E88C2FDF91CF911F91FE
:102040000F91FF90EF90DF90CF9008959093F2065C
:102050008093F10608959093F0068093EF0608951B
:102060009093EC068093EB0608951F920F920FB6A3
:102070000F9211240BB60F922F933F934F935F93C0
:102080006F937F938F939F93AF93BF93EF93FF9340
:10209000E091F106F091F2061995FF91EF91BF9151
:1020A000AF919F918F917F916F915F914F913F91F0
:1020B0002F910F900BBE0F900FBE0F901F90189591
:1020C0001F920F920FB60F9211240BB60F922F93FF
:1020D0003F934F935F936F937F938F939F93AF93B0
:1020E000BF93EF93FF93E091EF06F091F0061995FF
:1020F000FF91EF91BF91AF919F918F917F916F91E0
:102100005F914F913F912F910F900BBE0F900FBE9B
:102110000F901F9018951F920F920FB60F921124D7
:102120000BB60F922F933F934F935F936F937F93D1
:102130008F939F93AF93BF93EF93FF93E091ED063F
:10214000F091EE061995FF91EF91BF91AF919F919C
:102150008F917F916F915F914F913F912F910F9050
:102160000BBE0F900FBE0F901F9018951F920F92ED
:102170000FB60F9211240BB60F922F933F934F93EC
:102180005F936F937F938F939F93AF93BF93EF93DF
:10219000FF93E091EB06F091EC061995FF91EF911A
:1021A000BF91AF919F918F917F916F915F914F916F
:1021B0003F912F910F900BBE0F900FBE0F901F906D
:1021C00018951F920F920FB60F9211240F900FBE09
:1021D0000F901F9018951F920F920FB60F92112417
:1021E0000F900FBE0F901F9018951F920F920FB671
:1021F0000F9211240F900FBE0F901F9018951F92F1
:102200000F920FB60F9211240F900FBE0F901F90D8
:1022100018951F920F920FB60F9211240F900FBEB8
:102220000F901F9018951F920F920FB60F921124C6
:102230000F900FBE0F901F9018951F920F920FB620
:102240000F9211240F900FBE0F901F9018951F92A0
:102250000F920FB60F9211240F900FBE0F901F9088
:1022600018951F920F920FB60F9211240F900FBE68
:102270000F901F9018951F920F920FB60F92112476
:102280000F900FBE0F901F9018951F920F920FB6D0
:102290000F9211240F900FBE0F901F9018951F934F
:1022A000CF93DF931F92CDB7DEB78FB78983F894B2
:1022B000198119D21FBF0F90DF91CF911F910895FF
:1022C0001F93CF93DF931F92CDB7DEB78FB789836C
:1022D000F8941981A6D31FBF0F90DF91CF911F9162
:1022E000089581E080935A09089585FD03C0982FD1
:1022F0009F7304C0982F91959F719195E2E6F1E04C
:102300002491291754F48491803EB4F08032B4F4BF
:102310008823CCF48F71806216C0E1E7F1E024914C
:1023200092178CF48491803E5CF080325CF48823B8
:1023300054F48F71806207C080E205C08FE103C052
:1023400080E201C08FE180680895CF93DF93C7E3F7
:10235000D9E084E08C8B83E08D8B2FEF3FEF3F87BC
:102360002E873D872C879BE09B8B188E40E058EF93
:102370006FEF77E0488759876A877B872AE031E0EB
:10238000398B288B9AE0998F92E09A8F95E09B8FFA
:102390008C8F84E8AADF8F8B81E08A8B1E8ADF9185
:1023A000CF91089585FD02C08F7303C081958F7111
:1023B0008195E2E6F1E0949189173CF4E3E6F1E0DF
:1023C00021E0949189173CF001C020E098174CF46B
:1023D0008FEF820F08952F5F3196203191F780E0C3
:1023E0000895822F0895CF93DF93E7E3F9E0868580
:1023F00080936201878580936301E4E6F1E0A7E3BF
:10240000B9E08D918193EC3631E0F307D1F7E7E342
:10241000F9E084858093600185858093610148E4BB
:1024200051E0DA018C912289B0E22B9F90011124B6
:1024300020768F79822BDA018C93CFE6D1E08881E8
:1024400095899F70807F892B88832EE631E0D901A2
:102450008C919689990F990F990F9870877F892B86
:102460008C932881938DB0E19B9FC0011124922F02
:102470009F70892B8883DA018C9193899F71807E6C
:10248000892B8C9387898EDFE5E4F1E09081907F42
:102490008F70892B8083DF91CF910895CF93DF9345
:1024A0008E3441F0893561F4FB01808180935309BA
:1024B00080E00BC1FB01808180934B0980E005C166
:1024C000909156099F3009F4DCC08B3009F4C9C0E3
:1024D00080F4EB01823009F484C020F4882309F4ED
:1024E00046C0D1C0833009F48CC0843009F45AC08E
:1024F000CAC0833579F128F48F3451F08035E9F082
:10250000C2C0873509F456C0803F09F48BC0BBC0F8
:10251000FB018081E7E3F9E0858B938D981710F438
:1025200090934C09EFE6F1E0808190914C099F7007
:10253000807F892B808380E0C8C0FB0190818181EE
:10254000E7E3F9E0968787879093620180936301C0
:1025500080E0BBC0FB0190818181E7E3F9E09487D3
:102560008587909360018093610180E0AEC0809187
:102570005B0981118AC0888140E058EF6FEF77E0F6
:10258000082E04C076956795579547950A94D2F71B
:1025900040FF7DC0983009F480C088E06DDA883053
:1025A000E1F786C080915B09811173C08881811138
:1025B00072C08BC0FB019081E7E3F9E0938F8589BE
:1025C000981710F490934C09EFE6F1E08081282FE2
:1025D0002F7030E1939FC0011124822B808380E013
:1025E00074C08881C7E3D9E08F8B7FDE8F8BDADE02
:1025F000E5E4F1E09081907F8F70892B808380E00B
:1026000064C0888180934909E8E4F1E0208130E2E8
:10261000839FC00111248076922F9F79892B80831C
:1026200080E053C0FB01B081A1815281438134819C
:10263000258196818781E7E3F9E0B083A183528306
:1026400043833483258396838783E4E6F1E0A7E31D
:10265000B9E08D918193EC3631E0F307D1F780E05A
:1026600034C0FB01808180934D09EEE6F1E090815A
:10267000880F880F880F8870977F892B808380E070
:1026800024C081E822C084EF20C086E81EC088EE06
:102690001CC086E81AC088EE18C080934A09E8E496
:1026A000F1E09081907E8F71892B808380E00DC056
:1026B000888180934A09E8E4F1E09081907E8F71EF
:1026C000892B808386E1D8D980E0DF91CF9108956E
:1026D00004C0615071098109910961157105810575
:1026E0009105B9F70895CF92DF92EF92FF920F9381
:1026F0001F93CF93DF93E091E906F091EA063097BC
:1027000071F4CCE4D1E088818F77888363E070E056
:1027100080E090E0DDDF88818068888348C0009198
:10272000470110917B0111230CF441C0E080F1803E
:1027300082E0810FEBE8F0E0E81BF109E701CE0F42
:10274000DF1FC12ED12CA6014F5F5F4F60E871E003
:10275000CE0176D7FE011293D7011896FC93EE9323
:102760001797EC0DFD1D02836091E9067091EA0652
:1027700080E399E02DD98BE893D89093EA06809373
:10278000E906892B21F481E080932F090DC0CCE468
:10279000D1E088818F77888363E070E080E090E00B
:1027A00097DF88818068888380E480934F01DF9180
:1027B000CF911F910F91FF90EF90DF90CF900895F0
:1027C000CF93DF93AC01FC01C081D181AF81B8858B
:1027D0008C9180935709E82FF0E03196EA0FFB1FA8
:1027E000808131813D3320F4311103C031E001C0DB
:1027F0003CE382958695869583702FEF829FC0017A
:102800001124389FB001399F700D11249B01A3E85A
:10281000BDE28AD696958795929582958F70892785
:102820009F7089278F3F910511F008F08FEF80830B
:102830005A834983CE012ED6DF91CF91089590918E
:102840005B09911116C0883029F416D910922F090E
:1028500088E008958091E9069091EA06892B21F09D
:1028600086E10AD986E0089581E080932F0986E009
:10287000089586E8089504C061507109810991099D
:102880006115710581059105B9F7089510925B09ED
:102890008091F306833069F028F4882391F0813029
:1028A00031F00DC0853039F0873039F008C087E845
:1028B00009C081EE07C089EE05C085E803C085E840
:1028C00001C080E06091350970913609E0C5089536
:1028D0001F93CF93DF931F92CDB7DEB7182F6623D8
:1028E00081F0ECE6F1E020819091530930E1939F73
:1028F000C0011124922F9F70892B80831230E0F445
:1029000008C0ECE6F1E080818F7080831230A0F483
:102910000DC0ECE6F1E0808190914B09990F9E701B
:10292000817F892B808310926F011AC0ECE6F1E061
:1029300080818E60808314C0E7E3F9E0838D20E11D
:10294000829FC00111249589892B80936F01ACE689
:10295000B1E08C919489990F9E70817F892B8C9323
:1029600089E18AD88931E1F71130A1F480915709C2
:10297000833140F061E073E080E090E07CDF109212
:1029800057090DC06BEA70E080E090E074DF1092B0
:10299000570905C06CE070E080E090E06CDF8FB715
:1029A0008983F8941981E9E3F1E080818260808372
:1029B0000000000080818D7F8083609158097091B4
:1029C0005909FB01408150E04150510980E891E0F4
:1029D00037D681E080935B091FBF0F90DF91CF91C5
:1029E0001F910895FC0190915B09911116C0F0931D
:1029F0003609E09335090780F085E02DF0935909F9
:102A0000E09358098081815080935709EF2B39F06A
:102A1000862F642F5DDF80E0089586E8089588EEB4
:102A2000089580915B098130C1F4809142018295C3
:102A3000869587708093F30682E080935B0980918E
:102A4000E9069091EA06892B31F489E015D881E0F6
:102A500080932F09089586E10FC80895882329F1EE
:102A6000EDE4F1E080818C7F8083808188608083C9
:102A7000AAE4B1E08C91807F83608C938081846034
:102A800080838081837009F054C080914D0183FF61
:102A900052C080914D0182FF50C080914A018F70D9
:102AA000833009F04CC080E00895EDE4F1E08081CE
:102AB000877F8083AAE4B1E08C91807F87608C93CC
:102AC000808184608083613031F480818C7F81607B
:102AD000808385E817C0623041F4EDE4F1E0808145
:102AE0008C7F8260808385E80DC0662311F063309F
:102AF00041F4EDE4F1E080818C7F808385E860E043
:102B000001C088EE20914D01237030E070E026175F
:102B10003707B9F490914D0193FD15C090914D0187
:102B200092FD13C090914A019F70933079F480E038
:102B3000089585E8089585E8089585E8089585E86D
:102B4000089585E8089585E8089585E80895811138
:102B500024C0FB018081803D2CF08FEC8093F40633
:102B60006FE012C0873A2CF486EA8093F40660E0A6
:102B70000BC08093F406082E000C990B865A9F4FC9
:102B800063E070E0B6D46F5FE5E5F1E08081807FBF
:102B90006F70682B608380E0089584EF089586EA63
:102BA0008093F40664EF76E080E0D1DF61E080E0BE
:102BB0000E94D60860E180E00E94D60880E0089577
:102BC0000C949A0108950C94D20108958091840088
:102BD000909185000895EFE6F0E080818D7F8083FD
:102BE000B19A0895B19AEFE6F0E080818260808327
:102BF0000895EFE6F0E0808181608083B09A0895C7
:102C000080E890E082C30895E9E8F0E02081922B0B
:102C10009083E8E8F0E09081892B80830895CF933A
:102C2000DF931F92CDB7DEB78FB78983F894898180
:102C30000F90DF91CF9108958FBF0895CF93DF93C9
:102C400080E890E0EBD260EE75E180E890E0D4D3CC
:102C5000CFE6D0E088818160888363EE75E180E80B
:102C600090E0EAD388818D7F8883E1E8F0E080817D
:102C70008160808388E0DF91CF9108951F920F9249
:102C80000FB60F9211240BB60F922F933F934F93D1
:102C90005F936F937F938F939F93AF93BF93EF93C4
:102CA000FF93E0911307F0911407309709F01995FD
:102CB000FF91EF91BF91AF919F918F917F916F9114
:102CC0005F914F913F912F910F900BBE0F900FBED0
:102CD0000F901F9018951F920F920FB60F9211240C
:102CE0000BB60F922F933F934F935F936F937F9306
:102CF0008F939F93AF93BF93EF93FF93E09111074F
:102D0000F0911207309709F01995FF91EF91BF915B
:102D1000AF919F918F917F916F915F914F913F9173
:102D20002F910F900BBE0F900FBE0F901F90189514
:102D30001F920F920FB60F9211240BB60F922F9382
:102D40003F934F935F936F937F938F939F93AF9333
:102D5000BF93EF93FF93E0910F07F0911007309727
:102D600009F01995FF91EF91BF91AF919F918F91CC
:102D70007F916F915F914F913F912F910F900BBE7B
:102D80000F900FBE0F901F9018951F920F920FB6C5
:102D90000F9211240BB60F922F933F934F935F9393
:102DA0006F937F938F939F93AF93BF93EF93FF9313
:102DB000E0910D07F0910E07309709F01995FF91FA
:102DC000EF91BF91AF919F918F917F916F915F91A3
:102DD0004F913F912F910F900BBE0F900FBE0F9010
:102DE0001F9018951F920F920FB60F9211240BB6D9
:102DF0000F922F933F934F935F936F937F938F9394
:102E00009F93AF93BF93EF93FF93E0910B07F091E4
:102E10000C07309709F01995FF91EF91BF91AF9191
:102E20009F918F917F916F915F914F913F912F91E2
:102E30000F900BBE0F900FBE0F901F9018951F9212
:102E40000F920FB60F9211240BB60F922F933F9350
:102E50004F935F936F937F938F939F93AF93BF93A2
:102E6000EF93FF93E0910907F0910A07309709F07B
:102E70001995FF91EF91BF91AF919F918F917F91A4
:102E80006F915F914F913F912F910F900BBE0F90DB
:102E90000FBE0F901F9018951F920F920FB60F92B2
:102EA00011240BB60F922F933F934F935F936F9321
:102EB0007F938F939F93AF93BF93EF93FF93E09193
:102EC0000707F0910807309709F01995FF91EF91E6
:102ED000BF91AF919F918F917F916F915F914F9132
:102EE0003F912F910F900BBE0F900FBE0F901F9030
:102EF00018951F920F920FB60F9211240BB60F92D6
:102F00002F933F934F935F936F937F938F939F93F1
:102F1000AF93BF93EF93FF93E0910507F0910607FE
:102F2000309709F01995FF91EF91BF91AF919F9163
:102F30008F917F916F915F914F913F912F910F9062
:102F40000BBE0F900FBE0F901F9018951F920F92FF
:102F50000FB60F9211240BB60F922F933F934F93FE
:102F60005F936F937F938F939F93AF93BF93EF93F1
:102F7000FF93E0910307F0910407309709F019954A
:102F8000FF91EF91BF91AF919F918F917F916F9141
:102F90005F914F913F912F910F900BBE0F900FBEFD
:102FA0000F901F9018951F920F920FB60F92112439
:102FB0000BB60F922F933F934F935F936F937F9333
:102FC0008F939F93AF93BF93EF93FF93E09101078C
:102FD000F0910207309709F01995FF91EF91BF9199
:102FE000AF919F918F917F916F915F914F913F91A1
:102FF0002F910F900BBE0F900FBE0F901F90189542
:103000001F920F920FB60F9211240BB60F922F93AF
:103010003F934F935F936F937F938F939F93AF9360
:10302000BF93EF93FF93E091FF06F0910007309775
:1030300009F01995FF91EF91BF91AF919F918F91F9
:103040007F916F915F914F913F912F910F900BBEA8
:103050000F900FBE0F901F9018951F920F920FB6F2
:103060000F9211240BB60F922F933F934F935F93C0
:103070006F937F938F939F93AF93BF93EF93FF9340
:10308000E091FD06F091FE06309709F01995FF9149
:10309000EF91BF91AF919F918F917F916F915F91D0
:1030A0004F913F912F910F900BBE0F900FBE0F903D
:1030B0001F9018951F920F920FB60F9211240BB606
:1030C0000F922F933F934F935F936F937F938F93C1
:1030D0009F93AF93BF93EF93FF93E091FB06F09123
:1030E000FC06309709F01995FF91EF91BF91AF91D0
:1030F0009F918F917F916F915F914F913F912F9110
:103100000F900BBE0F900FBE0F901F9018951F923F
:103110000F920FB60F9211240BB60F922F933F937D
:103120004F935F936F937F938F939F93AF93BF93CF
:10313000EF93FF93E091F906F091FA06309709F0CA
:103140001995FF91EF91BF91AF919F918F917F91D1
:103150006F915F914F913F912F910F900BBE0F9008
:103160000FBE0F901F9018951F920F920FB60F92DF
:1031700011240BB60F922F933F934F935F936F934E
:103180007F938F939F93AF93BF93EF93FF93E091C0
:10319000F706F091F806309709F01995FF91EF9135
:1031A000BF91AF919F918F917F916F915F914F915F
:1031B0003F912F910F900BBE0F900FBE0F901F905D
:1031C00018951F920F920FB60F9211240BB60F9203
:1031D0002F933F934F935F936F937F938F939F931F
:1031E000AF93BF93EF93FF93E091F506F091F6064E
:1031F000309709F01995FF91EF91BF91AF919F9191
:103200008F917F916F915F914F913F912F910F908F
:103210000BBE0F900FBE0F901F9018951F93CF936A
:10322000DF931F92CDB7DEB72FB72983F8941981AA
:10323000009709F464C08837910549F461E080E0A3
:103240000E94D60860E180E00E94D60858C0803C09
:10325000910529F462E080E00E94D60850C08C34C9
:10326000910529F464E080E00E94D60848C08038C7
:10327000910529F468E080E00E94D60840C08434BB
:10328000910529F460E280E00E94D60838C0803BB6
:10329000910529F460E480E00E94D60830C0883BA4
:1032A000910529F460E880E00E94D60828C0883C97
:1032B000910529F461E081E00E94D60820C08039A0
:1032C000910529F468E081E00E94D60818C0803A90
:1032D000910529F460E181E00E94D60810C0803297
:1032E00021E0920729F460E281E00E94D60807C03D
:1032F0008334914021F460E481E00E94D6081FBF2E
:103300000F90DF91CF911F9108951F93CF93DF937B
:103310001F92CDB7DEB72FB72983F8941981009794
:1033200009F464C08837910549F461E080E00E94A7
:10333000EE0860E180E00E94EE0858C0803C9105F4
:1033400029F462E080E00E94EE0850C08C349105C0
:1033500029F464E080E00E94EE0848C080389105BE
:1033600029F468E080E00E94EE0840C084349105B2
:1033700029F460E280E00E94EE0838C0803B9105AD
:1033800029F460E480E00E94EE0830C0883B91059B
:1033900029F460E880E00E94EE0828C0883C91058E
:1033A00029F461E081E00E94EE0820C08039910597
:1033B00029F468E081E00E94EE0818C0803A910587
:1033C00029F460E181E00E94EE0810C0803221E023
:1033D000920729F460E281E00E94EE0807C083347E
:1033E000914021F460E481E00E94EE081FBF0F903D
:1033F000DF91CF911F9108958038910529F4709342
:1034000014076093130708958039910529F4709388
:103410000C0760930B070895803A910529F4709387
:1034200004076093030708958032914021F470935C
:10343000FC066093FB0608958038910529F470938B
:1034400012076093110708958039910529F470934C
:103450000A07609309070895803A910529F470934B
:1034600002076093010708958032914021F4709320
:10347000FA066093F90608950E946E080E94B90842
:103480000E942A0C0E94870E0E944F07F9CF0C94CD
:1034900075020895CF93DF93EC010E942902898180
:1034A0009A810E94560CDF91CF910895DB018F9392
:1034B0009F9349D0BF91AF91A29F800D911DA39F73
:1034C000900DB29F900D11240895AA1BBB1B51E1D2
:1034D00007C0AA1FBB1FA617B70710F0A61BB70B84
:1034E000881F991F5A95A9F780959095BC01CD0129
:1034F000089597FB072E16F4009406D077FD08D0A8
:10350000E4DF07FC05D03EF4909581959F4F089528
:10351000709561957F4F0895EE0FFF1F881F8BBF39
:103520000790F691E02D1994A29FB001B39FC001BE
:10353000A39F700D811D1124911DB29F700D811DDF
:103540001124911D0895F0DFA59F900DB49F900D5B
:10355000A49F800D911D11240895B7FFF4CFF3DFD0
:10356000821B930B08950024A7FD00942A0F301DA1
:10357000401D501D601D701D801D901D089500246C
:10358000A7FD00942A173005400550056005700519
:103590008005900508958F929F92AF92BF92CF922F
:1035A000DF92EF92FF92CF93DF93EC0168817981F4
:1035B0008A819B81611571058105910521F464E281
:1035C00079ED8BE597E02DE133EF41E050E041D01C
:1035D00049015A019B01AC01A7EAB1E4B4DF6B01D8
:1035E0007C01ACEEB4EFA5019401B9DFDC01CB01A5
:1035F0008C0D9D1DAE1DBF1DB7FF03C00197A10916
:10360000B04888839983AA83BB839F77DF91CF914A
:10361000FF90EF90DF90CF90BF90AF909F908F90F2
:103620000895B9CF80E092E0B6CFA0E0B0E08093FB
:10363000000290930102A0930202B0930302089546
:10364000FB01DC0102C001900D9241505040D8F7BF
:103650000895052E97FB16F400940FD057FD05D062
:1036600014D007FC02D046F408C050954095309520
:1036700021953F4F4F4F5F4F0895909580957095DE
:1036800061957F4F8F4F9F4F0895A1E21A2EAA1B7D
:10369000BB1BFD010DC0AA1FBB1FEE1FFF1FA21702
:1036A000B307E407F50720F0A21BB30BE40BF50BFF
:1036B000661F771F881F991F1A9469F76095709588
:1036C000809590959B01AC01BD01CF010895F894C0
:0236D000FFCF2A
:1036D20001000000FFFF0A00FFFF0100FFFF7C3D29
:1036E2003D3D3D3D4445434F4E47455354494F4E62
:1036F2003D3D3D3D3D7C7C20202020202020434C30
:1037020020532D303320202020202020207C007CBC
:103712003D3D3D4143545F5055424C49434154491C
:103722004F4E3D3D3D3D7C7C2020202020202043EB
:103732004C20532D303020202020202020207C00BF
:103742007C3D3D3D3D3D3D3D3D52585F41434B3DFE
:103752003D3D3D3D3D3D3D7C7C20202020202020E4
:10376200434C20532D303120202020202020207C4B
:10377200007C3D3D3D3D3D3D52585F505542434FDB
:103782004D503D3D3D3D3D3D7C7C20202020202074
:1037920020434C20532D3032202020202020202076
:1037A2007C007C2020202020202020545F5741498B
:1037B200543A202020202020207C7C202020202001
:1037C20020202046696E6973682020202020202056
:1037D200207C007C2020202020202020434C5F459C
:1037E2004E4420202020202020207C7C2D2D2D2D99
:1037F2002D2D20434C20532D3033202D2D2D2D2DBA
:103802002D2D7C007C20207075626C696361746967
:103812006F6E52656164793D3120207C7C202020CE
:103822002020202028516F535F3029202020202083
:103832002020207C007C20207075626C696361749A
:10384200696F6E52656164793D3120207C7C202055
:10385200202020202028516F535F31292020202052
:10386200202020207C007C20207075626C696361BE
:1038720074696F6E52656164793D3120207C7C20D1
:1038820020202020202028516F535F322920202021
:1038920020202020207C007C20202020202020208E
:1038A200434C5F454E4420202020202020207C7C59
:1038B2002D2D2D2D2D2D20434C20532D3030202DFC
:1038C2002D2D2D2D2D2D7C005061796C6F61642D75
:1038D200516F535F30005061796C6F61642D516F8D
:1038E2005331005061796C6F61642D516F53320016
:1038F2007C2020202020202020434C5F454E442065
:10390200202020202020207C7C2D2D2D2D2D2D20AF
:10391200434C20532D3031202D2D2D2D2D2D2D7C3E
:10392200007C2020202020202020434C5F454E4454
:1039320020202020202020207C7C2D2D2D2D2D2D7F
:1039420020434C20532D3032202D2D2D2D2D2D2D69
:023952007C00F7
:00000001FF
