S00E0000436C69656E742E73726563B7
S1130000B8C00000D7C00000D5C00000D3C00000B5
S1130010D1C00000CFC00000CDC00000CBC00000A4
S1130020C9C00000C7C00000C5C00000C3C00000B4
S1130030C1C00000BFC00000BDC00000BBC00000C4
S1130040B9C000000C94F1140C941E150C944B15BB
S11300500C94C414AFC00000ADC00000ABC00000DD
S1130060A9C00000A7C00000A5C00000A3C00000F4
S1130070A1C000009FC000009DC000009BC0000004
S11300800C94A5150C94D2150C94FF150C947815AA
S113009091C000008FC000008DC000008BC0000024
S11300A089C0000087C000000C9459160C94861671
S11300B00C94B3160C942C167DC000000C940D17F0
S11300C00C943A170C9467170C94E01673C0000054
S11300D071C000006FC000006DC000006BC0000064
S11300E069C000000C94710F0C947B0F0C94670F83
S11300F00C94E60E0C94110F0C94850F0C94BB0E0B
S11301000C943C0F57C0000055C0000053C00000C1
S113011051C000004FC000000C94990F0C948F0F35
S11301200C94A30F0C94AD0F0C94B70F0C94C10F47
S11301300C94CB0F3E0C650C590C720C590C310C01
S11301404B0C590C590C590C590C590C050C590CE5
S1130150590C590C590C590C590C910C590C590C3B
S1130160CA0C04030302020100FFFEFDFCFBF9F7C5
S1130170F4EF11241FBECFEFD1E8DEBFCDBF00E006
S11301800CBF13E0A0E0B2E0EEEDF3E300E00BBF40
S113019002C007900D92A435B107D9F728E0A4E571
S11301A0B3E001C01D92AF32B207E1F70E94C2185A
S11301B00C94ED1925CF0E946C142091580322232E
S11301C0D9F040912E0830E020915803642F732F0A
S11301D00E94EB18FB018FEF9FEF642F732F0E9497
S11301E0EB1830E0629FC001639F900D729F900DE9
S11301F011248E0F9F1F089560912E0870E00E94B5
S1130200EB18CB0108950E9471140E94951410926A
S113021054031092550310925603109257031092F0
S11302205A03109259030C94A2140E947F14109242
S113023058030895E8DFF9DF0C9486140F931F9395
S1130240CF93DF93EC010E946C148C01BE0180E01B
S113025090E020912E0830E040E050E00E94DC184D
S1130260DC01CB01A80160E070E0480F591F6A1F50
S11302707B1F40935403509355036093560370932C
S11302805703409154035091550360915603709164
S11302905703AB01662777274093540350935503C4
S11302A06093560370935703409154035091550340
S11302B0609156037091570341155105610571050D
S11302C091F04091540350915503609156037091FD
S11302D057030196080F191F10935A0300935903EB
S11302E00E94711408C0080F191F10935A03009339
S11302F059030E9478148091590390915A038436CB
S1130300910530F48C599F4F90935A03809359036D
S11303108091590390915A030E948A14DF91CF91DE
S11303201F910F910895109258030E94A414809372
S11303302E0808958091540390915503A09156037B
S1130340B09157030097A105B105C9F080915403FA
S113035090915503A0915603B09157030197A109B9
S1130360B1098093540390935503A0935603B0931B
S113037057030097A105B10511F40E9478148091E8
S113038058038F5F8093580390912E08891748F083
S113039010925803E0915B03F0915C03309709F0ED
S11303A0199508950E947114E0915D03F0915E0324
S11303B0309709F01995089590935C0380935B033B
S11303C0089590935E0380935D030895FC0183E098
S11303D0808381E08183828383E090E0089581E0DB
S11303E090E09093CA078093C907089504C06150B0
S11303F07109810991096115710581059105B9F7A3
S113040008950F931F93CF93DF9320916F0330913F
S113041070032130310569F5EC0109EE15E081E73F
S1130420F80111928A95E9F7EF81F88581E7D801FF
S113043001900D928A95E1F789819A810E94DC0AE4
S1130440F8018385811109C01092700310926F0323
S113045010920E0210920D020CC0823051F41092D0
S1130460700310926F0382E090E090930E028093E9
S11304700D02DF91CF911F910F9108950895009778
S113048021F45E9AA29A729A08958130910521F41A
S11304905E98A29A729A08958230910521F45E9A28
S11304A0A298729A08958330910521F45E9AA29AD3
S11304B072980895049719F45E98A298729A089510
S11304C0CF93DF93CDB7DEB7E0970FB6F894DEBFD6
S11304D00FBECDBF80E3EFE0F2E0DE0111960190A4
S11304E00D928A95E1F780910B0290910C02813074
S11304F0910561F482E090E090930C0280930B02EA
S113050061E874E88EE190E071DF27C182309105E3
S113051099F483E090E090930C0280930B0241E005
S113052050E060E3CE0101961DD381E090E090930A
S1130530700380936F0311C18330910509F0E2C009
S113054080910D0290910E02892BA9F48FEF9FEFF9
S113055090930E0280930D025FD282E090E090931C
S11305606203809361038BDF81E090E090936C03DE
S113057080936B03F2C080916B0390916C03813084
S1130580910569F510926C0310926B034091070278
S1130590509108022091050230910602429FC00149
S11305A0439F900D529F900D11249093600380936C
S11305B05F03909376038093750311D281E090E0FA
S11305C090936803809367031092720310927103EF
S11305D084E090E090930C0280930B02BEC02091C3
S11305E0C9073091CA072130310509F044C0209170
S11305F06703309168032130310501F51092CA0771
S11306001092C907109268031092670341E050E00A
S11306106AE281E792E0A6D281E090E090936203DF
S1130620809361032CDF109272031092710384E0B3
S113063090E090930C0280930B028FC0223031051E
S1130640D1F41092CA071092C9071092680310924D
S1130650670341E050E06AE28CE992E083D26BEAFE
S113066071E184E090E0C2DE82E090E090936C035C
S113067080936B0372C00297D1F410926C031092B2
S11306806B038091630390916403880F991F909387
S113069064038093630390937603809375039FD1DF
S11306A081E090E090930A028093090256C0809101
S11306B0090290910A02019709F04FC08FEF9FEF52
S11306C090930A028093090285E997E07FDE809384
S11306D06D0390936E0340E050E0682F85E997E046
S11306E041D210926E0310926D0381E090E09093DA
S11306F072038093710384E090E090930C028093E2
S11307000B022BC08430910561F485E090E0909356
S11307100C0280930B0261E874E88EE190E066DEDF
S11307201CC00597D1F441E050E060E387EC92E00F
S113073019D281E090E090930C0280930B02809197
S113074071039091720390937403809373038FEFFA
S11307509FEF9093720380937103E0960FB6F89421
S1130760DEBF0FBECDBFDF91CF910895CF93DF934E
S1130770CDB7DEB7E0970FB6F894DEBF0FBECDBF9E
S113078080E3E0E4F2E0DE01119601900D928A9597
S1130790E1F780910B0290910C028130910561F494
S11307A082E090E090930C0280930B0261E874E87D
S11307B08EE190E01BDEDAC08230910599F483E08B
S11307C090E090930C0280930B0241E050E060E3D0
S11307D0CE010196C7D181E090E09093700380939D
S11307E06F03C4C08330910509F095C080910D0258
S11307F090910E020297B9F410920E0210920D021B
S11308000BD182E090E0909362038093610337DE22
S1130810109272031092710384E090E090930C02A2
S113082080930B02A3C08091C9079091CA070197D6
S113083089F41092CA071092C90741E050E06AE2B5
S113084088EF92E08FD181E090E090936A038093E7
S113085069038CC08091690390916A03019781F4C4
S113086010926A03109269036BEA71E184E090E0EC
S1130870BDDD81E090E090930A028093090276C086
S11308808091090290910A020197F1F48FEF9FEF92
S113089090930A028093090285E997E097DD80939B
S11308A06D0390936E0340E050E0682F85E997E074
S11308B059D110926E0310926D0383E090E09093EF
S11308C06C0380936B0352C080916B0390916C0313
S11308D0039709F04BC010926C0310926B03809144
S11308E0630390916403880F991F9093640380932A
S11308F06303909376038093750371D081E090E055
S1130900909372038093710384E090E090930C02BF
S113091080930B022BC08430910561F485E090E054
S113092090930C0280930B0261E874E88EE190E0EE
S11309305DDD1CC00597D1F481E090E090930C023A
S113094080930B0241E050E060E383E293E00AD13C
S11309508091710390917203909374038093730355
S11309608FEF9FEF9093720380937103E0960FB61D
S1130970F894DEBF0FBECDBFDF91CF910895809173
S113098004028823C1F01092040285E090E0909361
S11309906603809365039093640380936303909349
S11309A07603809375031BD082E090E090936803F4
S11309B08093670308958091730390917403009763
S11309C011F47ECD0895019709F4D0CE089507CD92
S11309D008958BEC97E0CDD2811145C10895EF9233
S11309E0FF920F931F93A0917503B091760320E4B7
S11309F032E44FE050E00E943319AB01BC01E12C1A
S1130A00F12C07EE14E020E08091CB07BFD21F91B8
S1130A100F91FF90EF9008958091CB0721C4089522
S1130A204F925F926F927F928F92AF92CF92EF929A
S1130A300F931F93CF93DF93CDB7DEB7A9E8B0E050
S1130A40AE19B109FD01E758FC4F3F01EE2079F0E2
S1130A50D80144244A944E0C512C9FEF491A590A48
S1130A60040D151D9D919193A017B107D9F742303C
S1130A7061F43BE03E0DD3014091150850911608F6
S1130A805E934E9340E050E826C0D301189731E1BD
S1130A903E0DE9E0F8E090819C93918111969C933E
S1130AA01197928112969C931297938113969C931B
S1130AB01397948114969C931497958115969C93FF
S1130AC01597968116969C931697978117969C93E3
S1130AD0179740E050EC823059F4FB0180819181FA
S1130AE0FD01929382933F01CA01806498600FC014
S1130AF03D01F8E06F1A71083A5F88E0FB01D30109
S1130B0001900D928A95E1F7CA0180649C604EEFD2
S1130B105AECF30132975183408331972083C110FB
S1130B2002C0816001C08162F301359791838083A3
S1130B30D30116973C93B0938103A0938003482D6F
S1130B406A2D89E793E00E947813DF91CF911F917A
S1130B500F91EF90CF90AF908F907F906F905F90B8
S1130B604F9008958F92AF92CF92EF920F931F936D
S1130B70CF93DF931F921F92CDB7DEB74115510576
S1130B8029F423E030E03A83298307C0413051053A
S1130B9021F42EE131EC3A832983209177033091BB
S1130BA07803A9014F5F5F4F509378034093770315
S1130BB0812C6894AA24A1F8C12CE62E8C0142E071
S1130BC0BE016F5F7F4F82E02BDF0F900F90DF91AC
S1130BD0CF911F910F91EF90CF90AF908F90089588
S1130BE086E00C94A5120895CF93DF9300D000D033
S1130BF0CDB7DEB747D038D037D40E94090E811163
S1130C00FFCF789484E090E09A8389838EEF9AEC06
S1130C109C838B838BE08D831E82BE016F5F7F4F2D
S1130C2083E50E94D410BE016D5F7F4F80E50E9472
S1130C30D410BE016B5F7F4F80E00E94D410BE01D0
S1130C406A5F7F4F84E00E94D41062E080E00E94DB
S1130C50B413C6DF26960FB6F894DEBF0FBECDBF21
S1130C60DF91CF910895FFCF8DB18E7F9EB15E9AB3
S1130C70569AA29A9A9A95609EB984608DB90895FD
S1130C80A8CE0895CF93DF931F92CDB7DEB78FEF31
S1130C9080936400809365008FB78983F894898179
S1130CA05F9350E85093610050E0509361005F916E
S1130CB08FBF0F90DF91CF910895CF93DF931F9251
S1130CC0CDB7DEB79FB79983F8949981823040F409
S1130CD0E82FF0E0EC59FF4F609580816823608332
S1130CE09FBF0F90DF91CF910895CF93DF931F9211
S1130CF0CDB7DEB79FB79983F8949981823038F4E1
S1130D00E82FF0E0EC59FF4F8081682B60839FBF90
S1130D100F90DF91CF91089580910804882319F0F2
S1130D2081E08093000808951F93CF93DF931F926F
S1130D30CDB7DEB78091CC079091CD070196909303
S1130D40CD078093CC078FB78983F894198180915C
S1130D5007048F3FE9F190E0FC01EE0FFF1F9C01B7
S1130D60220F331F220F331F220F331FE20FF31FF3
S1130D70E253F84F218521112BC0FC01EE0FFF1F18
S1130D80880F991F880F991F880F991FE80FF91F63
S1130D90E253F84F80819181A281B3812091CC07E5
S1130DA03091CD072A173B0799F448DA809107045C
S1130DB090E0FC01EE0FFF1F880F991F880F991F09
S1130DC0880F991FE80FF91FE253F84F81E08187DC
S1130DD01FBF0F90DF91CF911F9108950F931F9321
S1130DE0CF93DF93C82F8F3F09F460C00091CC07E5
S1130DF01091CD07E0D94091CC075091CD0704174D
S1130E001507A1F7D0E060E070E0FE01EE0FFF1FD0
S1130E109E01220F331F220F331F220F331FE20FB5
S1130E20F31FE253F84FBA0155274427A0E0B0E07E
S1130E30482B592B6A2B7B2B80819181A281B38112
S1130E40841B950BA60BB70B8F3F2FEF9207A207BE
S1130E502FE7B20738F59E01220F331F220F331FED
S1130E60220F331FFE01EE0FFF1FE20FF31FE253A9
S1130E70F84F218521111BC0009721E0A207B1057D
S1130E80B0F4DCD9CE01880F991FCC0FDD1FCC0F35
S1130E90DD1FCC0FDD1FC80FD91FC253D84F81E00F
S1130EA0898705C081E08093000801C0ACD9DF9137
S1130EB0CF911F910F91089580910008882309F420
S1130EC057C01092000880910804882309F450C088
S1130ED0809106048F3F59F4809105048F3F39F4C3
S1130EE080910704809305048093060415C0209123
S1130EF007048091050490E0FC01EE0FFF1F880FAA
S1130F00991F880F991F880F991FE80FF91FE25343
S1130F10F84F2087209305048091070490E0FC019A
S1130F20EE0FFF1F880F991F880F991F880F991FB5
S1130F30E80FF91FE253F84F80858093070420914E
S1130F40050430E0F901EE0FFF1F220F331F220FBB
S1130F50331F220F331FE20FF31FE253F84F9FEFAB
S1130F60908790910804915090930804911136CF82
S1130F700895FC0190910404953030F490839F5FB0
S1130F809093040480E0089584EF08952F923F9293
S1130F904F925F926F927F928F929F92AF92BF9285
S1130FA0CF92DF92EF92FF920F931F93CF93DF9331
S1130FB0CDB7DEB727970FB6F894DEBF0FBECDBF0F
S1130FC0382E4A015B01222EFF82EE82689444246B
S1130FD042F8481608F4FFC00115110509F4FDC0D4
S1130FE0C82ED12CF601EE0FFF1FC601880F991FE2
S1130FF0880F991F880F991FE80FF91FE253F84FC4
S113100084819581892B09F0EAC0E090CC07F090A7
S1131010CD07D1D84091CC075091CD07E416F50601
S1131020A1F760E070E0BA01552744272C01612C38
S1131030712C4A825B826C827D82442A552A662AFC
S1131040772A222021F021E0221691F0CAC0B501AE
S1131050A401405851096109710940385F4F6F4F2D
S11310607F4708F0C0C0840C951CA61CB71C10C098
S1131070B501A40140585109610971094419550980
S11310806609770940385F4F6F4F7F4708F0ADC05E
S11310908FB78983F894F9800FDFC601880F991FF1
S11310A0880F991F880F991FF601EE0FFF1FE80F95
S11310B0F91FE253F84F80829182A282B382158392
S11310C004834E805F80578246821186B091080463
S11310D0BF5FB0930804A0910704AF3F21F0B111A2
S11310E007C0EA2E84C030920704832D77DE70C0D7
S11310F0EA2E4A2F50E04F3F09F466C0842F90E057
S1131100BC01660F771F9C01220F331F220F331F70
S1131110220F331F260F371FF901E253F84F408087
S11311205180628073809501840104191509260990
S11311303709280139011FEF4116510661061FE7DF
S1131140710670F4FB01880F991F880F991F880F8F
S1131150991FE80FF91FE253F84FE42E408534C07D
S1131160F601EE0FFF1FCC0CDD1CCC0CDD1CCC0CEF
S1131170DD1CEC0DFD1DE253F84F4087FC01EE0F22
S1131180FF1F880F991F880F991F880F991FE80F59
S1131190F91FE253F84F1186A41305C030920704D7
S11311A0832D1CDE15C08E2D90E0FC01EE0FFF1F79
S11311B0880F991F880F991F880F991FE80FF91F2F
S11311C0E253F84F308604C05F5FB51394CF0FC06D
S11311D0FFBE80E02CC088EF2AC088EF28C083EFD0
S11311E026C088EF24C088EF22C088EF20C08E2D4F
S11311F090E0FC01EE0FFF1F880F991F880F991FC5
S1131200880F991FE80FF91FE253F84F3086F60153
S1131210EE0FFF1FCC0CDD1CCC0CDD1CCC0CDD1C3C
S1131220EC0DFD1DE253F84F8FEF8087D1CF279649
S11312300FB6F894DEBF0FBECDBFDF91CF911F91E3
S11312400F91FF90EF90DF90CF90BF90AF909F9061
S11312508F907F906F905F904F903F902F90089564
S11312600F931F93CF93DF931F92CDB7DEB78530D3
S113127008F0F1C0082F8FB78983F89419811CDE18
S113128080910804882309F466C090910704091327
S11312904EC021C009134BC0802F90E0FC01EE0F1B
S11312A0FF1F880F991F880F991F880F991FE80F38
S11312B0F91FE253F84F8085FA01EE0FFF1F440F28
S11312C0551F440F551F440F551FE40FF51FE253DC
S11312D0F84F808715C00E940301802F90E0FC0125
S11312E0EE0FFF1F880F991F880F991F880F991FF2
S11312F0E80FF91FE253F84F8085809307046EDDF1
S1131300802F90E0FC01EE0FFF1F880F991F880FBC
S1131310991F880F991FE80FF91FE253F84F8FEFB9
S113132080878091080481508093080478C0492FF5
S113133050E0FA01EE0FFF1F9A01220F331F220F14
S1131340331F220F331FE20FF31FE253F84F908530
S1131350815009F09FCF809106048F3F09F475C036
S1131360081347C025C0091343C0202F30E0F901FA
S1131370EE0FFF1F220F331F220F331F220F331FC5
S1131380E20FF31FE253F84F9085FA01EE0FFF1FAF
S1131390440F551F440F551F440F551FE40FF51FED
S11313A0E253F84F908790910504091338C01DC08B
S11313B080910504081306C08FEF80930504809381
S11313C006042DC0802F90E0FC01EE0FFF1F880F54
S11313D0991F880F991F880F991FE80FF91FE2536F
S11313E0F84F8085809306041AC08093050417C0C3
S11313F0892F482F50E0FA01EE0FFF1F9A01220FA8
S1131400331F220F331F220F331FE20FF31FE25348
S1131410F84F90859F3F09F0A6CF80E017C0802F3A
S113142090E0FC01EE0FFF1F880F991F880F991F92
S1131430880F991FE80FF91FE253F84F15821482A1
S113144017821682118681E001C080E01FBF8111DE
S113145004C082EF03C088EF01C080E00F90DF91E9
S1131460CF911F910F9108951092080410920008D3
S11314701092CD071092CC078FEF809307048093CE
S1131480060480930504EEECF7E020E038E0808762
S1131490158214823A96E217F307C9F710920404EE
S11314A084E996E00E94DC018CE896E00E94E10168
S11314B00C94930108950F931F93CF93DF931F927E
S11314C01F92CDB7DEB78FB78A83F8941A81F4DC04
S11314D01FBF1FEF012F37C08FB78983F89429816D
S11314E08091060490E0DC01AA0FBB1F880F991FAE
S11314F0880F991F880F991FA80FB91FA253B84FBF
S113150018969C9118971496ED91FC911597169640
S11315104D915C91179718961C93189715961C92E9
S11315201E92149717961C921E92169719961C9247
S1131530909306049F3F11F4009305042FBF309746
S113154011F0CA011995809106048F3F29F60F9076
S11315500F90DF91CF911F910F91089580E008952E
S1131560AACF0895CF93DF9389E094E0B0D0CEE082
S1131570D4E08AE194E099838883BE0189E094E011
S1131580ADD085EA94E09D838C8362E174E089E0C8
S113159094E0A4D080E395E09987888766E174E0BD
S11315A089E094E09BD0DF91CF91089560E070E0F2
S11315B089E094E0B8C00895009721F0BC0189E067
S11315C094E08CC008958F929F92AF92BF92CF9275
S11315D0DF92EF92FF920F931F93CF93DF931F92AB
S11315E0CDB7DEB72FB72983F8948980DC01149630
S11315F02C91222309F456C07A01962E5C01FC0139
S113160000811181452BE1F00115110509F44DC04C
S1131610680101C08901D70112966D917C911397DD
S1131620ED91FC91D8018D919C911995811109C07E
S1131630F8012281338168012115310559F735C03C
S113164068010115110599F1911031C0D5018D91F1
S11316509C9111970817190731F4F801828193813D
S11316608D939C9308C0D80112968D919C911397E9
S1131670F60193838283D50112968D919C911397E1
S11316800817190721F41396DC92CE921297F501EC
S113169084818150848380819181892B41F41382D8
S11316A0128205C000E010E002C000E010E08FBE2E
S11316B0C8010F90DF91CF911F910F91FF90EF9090
S11316C0DF90CF90BF90AF909F908F900895FC01D2
S11316D0118210821382128214820895CF93DF93B1
S11316E01F92CDB7DEB7FC018FB78983F894998137
S11316F08481811103C07183608306C0A281B38198
S113170013967C936E93129773836283DB01139613
S11317101C921E92129784818F5F84839FBF0F90C7
S1131720DF91CF910895AB0160E04DCF089504C0DF
S1131730615071098109910961157105810591054E
S1131740B9F708950F931F93CF93809141018F713F
S11317508830A1F481E080934F0189E080934201B5
S1131760C3E00FE411E0F801808180FD07C063E964
S113177070E080E090E0DBDFC150A9F7CF911F91CA
S11317800F9108951F93CF93DF931F92CDB7DEB7C8
S1131790182F809128088F3051F51F3009F438C173
S11317A010922C0887EF9FE0E1D28FB78983F894D9
S11317B099817894E9E3F1E080818D7F8083809141
S11317C02C088823E1F39FBF8FEF80934F0188E4B7
S11317D080934E01EDE4F1E08081846080831830D1
S11317E011F0133021F488E08093280811C1812F6F
S11317F090E0FC013397E731F10508F05AC08827DF
S1131800E656FF4F8F4F0C94121983E080934201E8
S1131810EDE4F1E080818B7F80830E9498198093AE
S11318206D01EEE6F1E080819770887F892B8083DB
S11318308FEF80934F0180E880934E0162E070E067
S113184080E090E074DFE9E3F1E0808182608083EE
S11318506FE270E080E090E06ADF8FE08093280818
S1131860D7C080912808883021F188E08093420114
S113187062E070E080E090E05ADF1BC080912808AD
S11318808830B9F083E08093420162E070E080E048
S113189090E04DDF0EC080912808883049F018F49C
S11318A0863039F409C0863139F0893111F404C025
S11318B049DFE1E4F1E0A6C089E08093420162E0FF
S11318C070E080E090E033DFF4CF80912808883026
S11318D019F0893071F302C035DFEBCF84E08093D7
S11318E04201E7CF80912808893041F018F488300C
S11318F071F0DFCF863111F08931D9F686E080931B
S1131900420162E070E080E090E011DFD2CF1ADFA4
S113191086E08093420162E070E080E090E007DFBF
S1131920C8CF80912808883091F018F48630C9F027
S1131930C0CF893019F0893109F0BBCF86E180939B
S1131940420162E070E080E090E0F1DEB2CFFADEC6
S113195086E18093420162E070E080E090E0E7DE9F
S1131960A8CF89E08093420162E070E080E090E0DB
S1131970DEDE809141018F7180932808893009F05F
S113198047C086E18093420162E070E080E090E02D
S1131990CEDE8FCF80912808883051F118F486303C
S11319A079F087CF893019F0863151F082CF89E1FF
S11319B08093420162E070E080E090E0B8DE79CF8D
S11319C089E08093420162E070E080E090E0AFDE65
S11319D0809141018F71809328088930C9F489E18D
S11319E08093420162E070E080E090E0A0DE61CF8D
S11319F0A9DE89E18093420162E070E080E090E03A
S1131A0096DE57CF80818F71809328088F31D1F370
S1131A100F90DF91CF911F910895CF93DF93809121
S1131A200108882319F180912D0881111FC080912C
S1131A30BB059091BC05892B41F48BE8B7DD9093ED
S1131A40BC058093BB05892B89F010920108CCE476
S1131A50D1E088818F77888363E070E080E090E054
S1131A6066DE88818068888386E18CDE8091060842
S1131A70882341F060E070E082E098E054DE009753
S1131A8009F024D580912D08823009F485D5DF91A1
S1131A90CF91089504C061507109810991096115BC
S1131AA0710581059105B9F70895FF920F931F936E
S1131AB0CF93DF9386E066DE8630E1F7E5E5F1E07B
S1131AC080818F77808310924E016894FF24F3F80D
S1131AD0C0E0D0E006E411E0F8019081CC0FDD1FF6
S1131AE0CC0FDD1F9076292F30E03695279532955F
S1131AF022952F7023273F702327C22BD32B62E01C
S1131B0070E080E090E0C6DFFA94F110E5CF83E066
S1131B1039DE8FEF80934F0188E480934E01CE012C
S1131B200E949B19DF91CF911F910F91FF9008950F
S1131B30FF920F931F93CF93DF93F82EC9E3D1E065
S1131B4088818D7F888361E471E080E090E0A2DF8A
S1131B5088818E7F888362E070E080E090E09ADF85
S1131B6088818160888366E870E080E090E092DF9D
S1131B70809141018F71CAE001E411E00AC066E876
S1131B8070E080E090E086DFF80180818F71C150C1
S1131B90C9F18830A1F78093280887DF0E9498193B
S1131BA080936D01EEE6F1E080819770887F892B48
S1131BB08083808180628083ECE4F1E080818068AE
S1131BC0808388E480934E018FEF80935601EDE487
S1131BD0F1E080818C7F82608083AAE4B1E08C9103
S1131BE0807F83608C93808188608083808184601F
S1131BF08083F11030D27DD210922D08109201080A
S1131C0080E001C085E8DF91CF911F910F91FF9093
S1131C100895CF92DF92EF92FF920F931F93CF9389
S1131C20DF9314BE80E18093350180933401809367
S1131C3033018093320192DC81116DC060E481E054
S1131C403CD8C9E3D1E088818160888388818D7F15
S1131C5088836BEF71E080E090E01CDF88818E7FE9
S1131C60888362E070E080E090E014DF8881816026
S1131C70888366E870E080E090E00CDF80914101A9
S1131C808F71CAE001E411E00BC066E870E080E007
S1131C9090E000DFF80180818F71C15009F451C0D8
S1131CA0883099F78093280880915C01843909F081
S1131CB048C035C00E949819F80181938F01EC1532
S1131CC0FD05C1F7F701208131814281538164818F
S1131CD0758186819781AFEF0E943919ADEF0E941B
S1131CE0451921F018F009E018E0E4CF85ED9FE0F4
S1131CF038D086EE9FE030D087EF9FE037D032DCDB
S1131D008BE854DC9093BC058093BB0582E098E09B
S1131D10DEDCCBD517C0C5E815C0C5E813C081E02B
S1131D2007DFC82F8111F9CF0F2EF9E0EF2EF8E06D
S1131D30FF2EF02D0F2EF1E1CF2EF8E0DF2EF02D47
S1131D40C1CFC5E88C2FDF91CF911F910F91FF90E8
S1131D50EF90DF90CF9008959093C4058093C305CE
S1131D6008959093C2058093C10508959093BE058C
S1131D708093BD0508951F920F920FB60F92112400
S1131D800BB60F922F933F934F935F936F937F9371
S1131D908F939F93AF93BF93EF93FF93E091C3050A
S1131DA0F091C4051995FF91EF91BF91AF919F9167
S1131DB08F917F916F915F914F913F912F910F90F0
S1131DC00BBE0F900FBE0F901F9018951F920F928D
S1131DD00FB60F9211240BB60F922F933F934F938C
S1131DE05F936F937F938F939F93AF93BF93EF937F
S1131DF0FF93E091C105F091C2051995FF91EF9110
S1131E00BF91AF919F918F917F916F915F914F910E
S1131E103F912F910F900BBE0F900FBE0F901F900C
S1131E2018951F920F920FB60F9211240BB60F92B2
S1131E302F933F934F935F936F937F938F939F93CE
S1131E40AF93BF93EF93FF93E091BF05F091C0056B
S1131E501995FF91EF91BF91AF919F918F917F91D0
S1131E606F915F914F913F912F910F900BBE0F9007
S1131E700FBE0F901F9018951F920F920FB60F92DE
S1131E8011240BB60F922F933F934F935F936F934D
S1131E907F938F939F93AF93BF93EF93FF93E091BF
S1131EA0BD05F091BE051995FF91EF91BF91AF91DA
S1131EB09F918F917F916F915F914F913F912F915E
S1131EC00F900BBE0F900FBE0F901F9018951F928E
S1131ED00F920FB60F9211240F900FBE0F901F9008
S1131EE018951F920F920FB60F9211240F900FBEE8
S1131EF00F901F9018951F920F920FB60F921124F6
S1131F000F900FBE0F901F9018951F920F920FB64F
S1131F100F9211240F900FBE0F901F9018951F92CF
S1131F200F920FB60F9211240F900FBE0F901F90B7
S1131F3018951F920F920FB60F9211240F900FBE97
S1131F400F901F9018951F920F920FB60F921124A5
S1131F500F900FBE0F901F9018951F920F920FB6FF
S1131F600F9211240F900FBE0F901F9018951F927F
S1131F700F920FB60F9211240F900FBE0F901F9067
S1131F8018951F920F920FB60F9211240F900FBE47
S1131F900F901F9018951F920F920FB60F92112455
S1131FA00F900FBE0F901F9018951F93CF93DF9340
S1131FB01F92CDB7DEB78FB78983F894198119D2F0
S1131FC01FBF0F90DF91CF911F9108951F93CF935F
S1131FD0DF931F92CDB7DEB78FB78983F894198149
S1131FE0A6D31FBF0F90DF91CF911F91089581E079
S1131FF080932C08089585FD03C0982F9F7304C017
S1132000982F91959F719195E2E6F1E0249129171B
S113201054F48491803EB4F08032B4F48823CCF438
S11320208F71806216C0E1E7F1E0249192178CF47D
S11320308491803E5CF080325CF4882354F48F7188
S1132040806207C080E205C08FE103C080E201C066
S11320508FE180680895CF93DF93C9E0D8E084E0EE
S11320608C8B83E08D8B2FEF3FEF3F872E873D874F
S11320702C879BE09B8B188E40E058EF6FEF77E046
S1132080488759876A877B872AE031E0398B288B18
S11320909AE0998F92E09A8F95E09B8F8C8F84E8D9
S11320A0AADF8F8B81E08A8B1E8ADF91CF910895FE
S11320B085FD02C08F7303C081958F718195E2E61F
S11320C0F1E0949189173CF4E3E6F1E021E0949186
S11320D089173CF001C020E098174CF48FEF820F71
S11320E008952F5F3196203191F780E00895822F73
S11320F00895CF93DF93E9E0F8E086858093620149
S1132100878580936301E4E6F1E0A9E0B8E08D916E
S11321108193EC3631E0F307D1F7E9E0F8E0848508
S11321208093600185858093610148E451E0DA0180
S11321308C912289B0E22B9F9001112420768F7913
S1132140822BDA018C93CFE6D1E0888195899F7048
S1132150807F892B88832EE631E0D9018C91968982
S1132160990F990F990F9870877F892B8C932881E9
S1132170938DB0E19B9FC0011124922F9F70892BF6
S11321808883DA018C9193899F71807E892B8C934B
S113219087898EDFE5E4F1E09081907F8F70892B51
S11321A08083DF91CF910895CF93DF938E3441F0F4
S11321B0893561F4FB0180818093250880E00BC19F
S11321C0FB01808180931D0880E005C1909128085F
S11321D09F3009F4DCC08B3009F4C9C080F4EB01F2
S11321E0823009F484C020F4882309F446C0D1C0A5
S11321F0833009F48CC0843009F45AC0CAC08335D2
S113220079F128F48F3451F08035E9F0C2C0873574
S113221009F456C0803F09F48BC0BBC0FB01808128
S1132220E9E0F8E0858B938D981710F490931E08DD
S1132230EFE6F1E0808190911E089F70807F892BEA
S1132240808380E0C8C0FB0190818181E9E0F8E0EF
S113225096878787909362018093630180E0BBC077
S1132260FB0190818181E9E0F8E094878587909370
S113227060018093610180E0AEC080912D088111DE
S11322808AC0888140E058EF6FEF77E0082E04C0E1
S113229076956795579547950A94D2F740FF7DC088
S11322A0983009F480C088E06DDA8830E1F786C0A0
S11322B080912D08811173C08881811172C08BC0F7
S11322C0FB019081E9E0F8E0938F8589981710F479
S11322D090931E08EFE6F1E08081282F2F7030E103
S11322E0939FC0011124822B808380E074C0888175
S11322F0C9E0D8E08F8B7FDE8F8BDADEE5E4F1E096
S11323009081907F8F70892B808380E064C0888166
S113231080931B08E8E4F1E0208130E2839FC00150
S113232011248076922F9F79892B808380E053C07B
S1132330FB01B081A1815281438134812581968141
S11323408781E9E0F8E0B083A18352834383348337
S1132350258396838783E4E6F1E0A9E0B8E08D91D4
S11323608193EC3631E0F307D1F780E034C0FB0110
S1132370808180931F08EEE6F1E09081880F880F3A
S1132380880F8870977F892B808380E024C081E840
S113239022C084EF20C086E81EC088EE1CC086E8F8
S11323A01AC088EE18C080931C08E8E4F1E090811C
S11323B0907E8F71892B808380E00DC0888180930B
S11323C01C08E8E4F1E09081907E8F71892B808372
S11323D086E1D8D980E0DF91CF91089504C061509F
S11323E07109810991096115710581059105B9F793
S11323F00895CF92DF92EF92FF920F931F93CF93A2
S1132400DF93E091BB05F091BC05309771F4CCE407
S1132410D1E088818F77888363E070E080E090E08A
S1132420DDDF88818068888348C00091470110916E
S11324307B0111230CF441C0E080F18082E0810F24
S1132440EBE8F0E0E81BF109E701CE0FDF1FC12E36
S1132450D12CA6014F5F5F4F60E871E0CE0176D7C3
S1132460FE011293D7011896FC93EE931797EC0D87
S1132470FD1D02836091BB057091BC0582E098E06C
S11324802DD98BE893D89093BC058093BB05892BF9
S113249021F481E0809301080DC0CCE4D1E088816F
S11324A08F77888363E070E080E090E097DF888135
S11324B08068888380E480934F01DF91CF911F91DE
S11324C00F91FF90EF90DF90CF900895CF93DF931B
S11324D0AC01FC01C081D181AF81B8858C9180931E
S11324E02908E82FF0E03196EA0FFB1F8081318143
S11324F03D3320F4311103C031E001C03CE3829547
S11325008695869583702FEF829FC0011124389F92
S1132510B001399F700D11249B01A3E8BDE28AD656
S113252096958795929582958F7089279F708927B4
S11325308F3F910511F008F08FEF80835A83498310
S1132540CE012ED6DF91CF91089590912D0891114F
S113255016C0883029F416D91092010888E008952D
S11325608091BB059091BC05892B21F086E10AD9A5
S113257086E0089581E08093010886E0089586E866
S1132580089504C0615071098109910961157105AB
S113259081059105B9F7089510922D088091C5051C
S11325A0833069F028F4882391F0813031F00DC034
S11325B0853039F0873039F008C087E809C081EEEA
S11325C007C089EE05C085E803C085E801C080E046
S11325D06091070870910808E0C508951F93CF9390
S11325E0DF931F92CDB7DEB7182F662381F0ECE698
S11325F0F1E020819091250830E1939FC0011124DE
S1132600922F9F70892B80831230E0F408C0ECE68F
S1132610F1E080818F7080831230A0F40DC0ECE66D
S1132620F1E0808190911D08990F9E70817F892B24
S1132630808310926F011AC0ECE6F1E080818E6015
S1132640808314C0E9E0F8E0838D20E1829FC0011B
S113265011249589892B80936F01ACE6B1E08C91AC
S11326609489990F9E70817F892B8C9389E18AD8F4
S11326708931E1F71130A1F480912908833140F0C8
S113268061E073E080E090E07CDF109229080DC0E7
S11326906BEA70E080E090E074DF1092290805C0D6
S11326A06CE070E080E090E06CDF8FB78983F89491
S11326B01981E9E3F1E080818260808300000000F9
S11326C080818D7F808360912A0870912B08FB01A3
S11326D0408150E04150510980E891E037D681E0D3
S11326E080932D081FBF0F90DF91CF911F91089504
S11326F0FC0190912D08911116C0F0930808E09305
S113270007080780F085E02DF0932B08E0932A0852
S11327108081815080932908EF2B39F0862F642F14
S11327205DDF80E0089586E8089588EE089580913D
S11327302D088130C1F4809142018295869587707D
S11327408093C50582E080932D088091BB0590910C
S1132750BC05892B31F489E015D881E08093010808
S1132760089586E10FC80895882329F1EDE4F1E086
S113277080818C7F8083808188608083AAE4B1E03B
S11327808C91807F83608C9380818460808380813E
S1132790837009F054C080914D0183FF52C0809131
S11327A04D0182FF50C080914A018F70833009F03F
S11327B04CC080E00895EDE4F1E08081877F808360
S11327C0AAE4B1E08C91807F87608C9380818460DF
S11327D08083613031F480818C7F8160808385E8DF
S11327E017C0623041F4EDE4F1E080818C7F8260B7
S11327F0808385E80DC0662311F0633041F4EDE475
S1132800F1E080818C7F808385E860E001C088EE00
S113281020914D01237030E070E026173707B9F49A
S113282090914D0193FD15C090914D0192FD13C0FF
S113283090914A019F70933079F480E0089585E87F
S1132840089585E8089585E8089585E8089585E85C
S1132850089585E8089585E80895811124C0FB0151
S11328608081803D2CF08FEC8093C6056FE012C010
S1132870873A2CF486EA8093C60560E00BC0809307
S1132880C605082E000C990B865A9F4F63E070E032
S1132890B6D46F5FE5E5F1E08081807F6F70682BCF
S11328A0608380E0089584EF089586EA8093C605E6
S11328B066EC75E080E0D1DF61E080E00E945D06B7
S11328C060E180E00E945D0680E008950C949A0126
S11328D008950C94D201089580918400909185000C
S11328E00895EFE6F0E080818D7F8083B19A0895AA
S11328F0B19AEFE6F0E08081826080830895EFE68C
S1132900F0E0808181608083B09A089580E890E04F
S113291082C30895E9E8F0E02081922B9083E8E8EF
S1132920F0E09081892B80830895CF93DF931F92E9
S1132930CDB7DEB78FB78983F89489810F90DF9183
S1132940CF9108958FBF0895CF93DF9380E890E0EF
S1132950EBD266E674E180E890E0D4D3CFE6D0E031
S113296088818160888369E674E180E890E0EAD335
S113297088818D7F8883E1E8F0E0808181608083B5
S113298088E0DF91CF9108951F920F920FB60F92B6
S113299011240BB60F922F933F934F935F936F9332
S11329A07F938F939F93AF93BF93EF93FF93E091A4
S11329B0E505F091E605309709F01995FF91EF913F
S11329C0BF91AF919F918F917F916F915F914F9143
S11329D03F912F910F900BBE0F900FBE0F901F9041
S11329E018951F920F920FB60F9211240BB60F92E7
S11329F02F933F934F935F936F937F938F939F9303
S1132A00AF93BF93EF93FF93E091E305F091E40557
S1132A10309709F01995FF91EF91BF91AF919F9174
S1132A208F917F916F915F914F913F912F910F9073
S1132A300BBE0F900FBE0F901F9018951F920F9210
S1132A400FB60F9211240BB60F922F933F934F930F
S1132A505F936F937F938F939F93AF93BF93EF9302
S1132A60FF93E091E105F091E205309709F01995A3
S1132A70FF91EF91BF91AF919F918F917F916F9152
S1132A805F914F913F912F910F900BBE0F900FBE0E
S1132A900F901F9018951F920F920FB60F9211244A
S1132AA00BB60F922F933F934F935F936F937F9344
S1132AB08F939F93AF93BF93EF93FF93E091DF05C1
S1132AC0F091E005309709F01995FF91EF91BF91CE
S1132AD0AF919F918F917F916F915F914F913F91B2
S1132AE02F910F900BBE0F900FBE0F901F90189553
S1132AF01F920F920FB60F9211240BB60F922F93C1
S1132B003F934F935F936F937F938F939F93AF9371
S1132B10BF93EF93FF93E091DD05F091DE053097CD
S1132B2009F01995FF91EF91BF91AF919F918F910A
S1132B307F916F915F914F913F912F910F900BBEB9
S1132B400F900FBE0F901F9018951F920F920FB603
S1132B500F9211240BB60F922F933F934F935F93D1
S1132B606F937F938F939F93AF93BF93EF93FF9351
S1132B70E091DB05F091DC05309709F01995FF91A0
S1132B80EF91BF91AF919F918F917F916F915F91E1
S1132B904F913F912F910F900BBE0F900FBE0F904E
S1132BA01F9018951F920F920FB60F9211240BB617
S1132BB00F922F933F934F935F936F937F938F93D2
S1132BC09F93AF93BF93EF93FF93E091D905F09157
S1132BD0DA05309709F01995FF91EF91BF91AF9104
S1132BE09F918F917F916F915F914F913F912F9121
S1132BF00F900BBE0F900FBE0F901F9018951F9251
S1132C000F920FB60F9211240BB60F922F933F938E
S1132C104F935F936F937F938F939F93AF93BF93E0
S1132C20EF93FF93E091D705F091D805309709F021
S1132C301995FF91EF91BF91AF919F918F917F91E2
S1132C406F915F914F913F912F910F900BBE0F9019
S1132C500FBE0F901F9018951F920F920FB60F92F0
S1132C6011240BB60F922F933F934F935F936F935F
S1132C707F938F939F93AF93BF93EF93FF93E091D1
S1132C80D505F091D605309709F01995FF91EF918C
S1132C90BF91AF919F918F917F916F915F914F9170
S1132CA03F912F910F900BBE0F900FBE0F901F906E
S1132CB018951F920F920FB60F9211240BB60F9214
S1132CC02F933F934F935F936F937F938F939F9330
S1132CD0AF93BF93EF93FF93E091D305F091D405A5
S1132CE0309709F01995FF91EF91BF91AF919F91A2
S1132CF08F917F916F915F914F913F912F910F90A1
S1132D000BBE0F900FBE0F901F9018951F920F923D
S1132D100FB60F9211240BB60F922F933F934F933C
S1132D205F936F937F938F939F93AF93BF93EF932F
S1132D30FF93E091D105F091D205309709F01995F0
S1132D40FF91EF91BF91AF919F918F917F916F917F
S1132D505F914F913F912F910F900BBE0F900FBE3B
S1132D600F901F9018951F920F920FB60F92112477
S1132D700BB60F922F933F934F935F936F937F9371
S1132D808F939F93AF93BF93EF93FF93E091CF05FE
S1132D90F091D005309709F01995FF91EF91BF910B
S1132DA0AF919F918F917F916F915F914F913F91DF
S1132DB02F910F900BBE0F900FBE0F901F90189580
S1132DC01F920F920FB60F9211240BB60F922F93EE
S1132DD03F934F935F936F937F938F939F93AF939F
S1132DE0BF93EF93FF93E091CD05F091CE0530971B
S1132DF009F01995FF91EF91BF91AF919F918F9138
S1132E007F916F915F914F913F912F910F900BBEE6
S1132E100F900FBE0F901F9018951F920F920FB630
S1132E200F9211240BB60F922F933F934F935F93FE
S1132E306F937F938F939F93AF93BF93EF93FF937E
S1132E40E091CB05F091CC05309709F01995FF91ED
S1132E50EF91BF91AF919F918F917F916F915F910E
S1132E604F913F912F910F900BBE0F900FBE0F907B
S1132E701F9018951F920F920FB60F9211240BB644
S1132E800F922F933F934F935F936F937F938F93FF
S1132E909F93AF93BF93EF93FF93E091C905F09194
S1132EA0CA05309709F01995FF91EF91BF91AF9141
S1132EB09F918F917F916F915F914F913F912F914E
S1132EC00F900BBE0F900FBE0F901F9018951F927E
S1132ED00F920FB60F9211240BB60F922F933F93BC
S1132EE04F935F936F937F938F939F93AF93BF930E
S1132EF0EF93FF93E091C705F091C805309709F06F
S1132F001995FF91EF91BF91AF919F918F917F910F
S1132F106F915F914F913F912F910F900BBE0F9046
S1132F200FBE0F901F9018951F93CF93DF931F929E
S1132F30CDB7DEB72FB72983F8941981009709F428
S1132F4064C08837910549F461E080E00E945D0621
S1132F5060E180E00E945D0658C0803C910529F440
S1132F6062E080E00E945D0650C08C34910529F433
S1132F7064E080E00E945D0648C08038910529F431
S1132F8068E080E00E945D0640C08434910529F425
S1132F9060E280E00E945D0638C0803B910529F420
S1132FA060E480E00E945D0630C0883B910529F40E
S1132FB060E880E00E945D0628C0883C910529F401
S1132FC061E081E00E945D0620C08039910529F40A
S1132FD068E081E00E945D0618C0803A910529F4FA
S1132FE060E181E00E945D0610C0803221E092071A
S1132FF029F460E281E00E945D0607C083349140B9
S113300021F460E481E00E945D061FBF0F90DF9110
S1133010CF911F9108951F93CF93DF931F92CDB744
S1133020DEB72FB72983F8941981009709F464C097
S11330308837910549F461E080E00E94750660E1FB
S113304080E00E94750658C0803C910529F462E036
S113305080E00E94750650C08C34910529F464E028
S113306080E00E94750648C08038910529F468E024
S113307080E00E94750640C08434910529F460E222
S113308080E00E94750638C0803B910529F460E415
S113309080E00E94750630C0883B910529F460E801
S11330A080E00E94750628C0883C910529F461E0FF
S11330B081E00E94750620C08039910529F468E0FA
S11330C081E00E94750618C0803A910529F460E1F8
S11330D081E00E94750610C0803221E0920729F435
S11330E060E281E00E94750607C08334914021F4B8
S11330F060E481E00E9475061FBF0F90DF91CF91BD
S11331001F9108958038910529F47093E605609322
S1133110E50508958039910529F47093DE056093DF
S1133120DD050895803A910529F47093D6056093DE
S1133130D50508958032914021F47093CE056093B3
S1133140CD0508958038910529F47093E4056093C2
S1133150E30508958039910529F47093DC056093A3
S1133160DB050895803A910529F47093D4056093A2
S1133170D30508958032914021F47093CC05609377
S1133180CB0508950E94F4050E9440060E94B00AEF
S11331900E940D0D0E94BF04F9CF0C943E020895C5
S11331A0CF93DF93EC010E94010289819A810E94EE
S11331B0DC0ADF91CF910895DB018F939F9349D06F
S11331C0BF91AF91A29F800D911DA39F900DB29FBF
S11331D0900D11240895AA1BBB1B51E107C0AA1F1F
S11331E0BB1FA617B70710F0A61BB70B881F991FA4
S11331F05A95A9F780959095BC01CD01089597FB48
S1133200072E16F4009406D077FD08D0E4DF07FCFF
S113321005D03EF4909581959F4F089570956195E2
S11332207F4F0895EE0FFF1F881F8BBF0790F69105
S1133230E02D1994A29FB001B39FC001A39F700D0C
S1133240811D1124911DB29F700D811D1124911DAA
S11332500895F0DFA59F900DB49F900DA49F800D5D
S1133260911D11240895B7FFF4CFF3DF821B930B54
S113327008950024A7FD00942A0F301D401D501D01
S1133280601D701D801D901D08950024A7FD0094ED
S11332902A17300540055005600570058005900526
S11332A008958F929F92AF92BF92CF92DF92EF9246
S11332B0FF92CF93DF93EC01688179818A819B81AE
S11332C0611571058105910521F464E279ED8BE5C1
S11332D097E02DE133EF41E050E041D049015A013C
S11332E09B01AC01A7EAB1E4B4DF6B017C01ACEE55
S11332F0B4EFA5019401B9DFDC01CB018C0D9D1D58
S1133300AE1DBF1DB7FF03C00197A109B048888354
S11333109983AA83BB839F77DF91CF91FF90EF902E
S1133320DF90CF90BF90AF909F908F900895B9CFCA
S113333080E092E0B6CFA0E0B0E0809300029093EA
S11333400102A0930202B09303020895FB01DC0181
S113335002C001900D9241505040D8F70895052EB7
S113336097FB16F400940FD057FD05D014D007FC3A
S113337002D046F408C050954095309521953F4FB2
S11333804F4F5F4F089590958095709561957F4F4D
S11333908F4F9F4F0895A1E21A2EAA1BBB1BFD015C
S11333A00DC0AA1FBB1FEE1FFF1FA217B307E40720
S11333B0F50720F0A21BB30BE40BF50B661F771F78
S11333C0881F991F1A9469F7609570958095909558
S11133D09B01AC01BD01CF010895F894FFCF1D
S11333DE010000000119000200FFFF0100FFFF7C45
S11333EE3D3D3D3D3D3D444953434F564552593D68
S11333FE3D3D3D3D3D3D7C7C202020202020202055
S113340E532D3030202020202020202020207C000E
S113341E7C3D3D3D3D3D3D52585F4757494E464FDD
S113342E3D3D3D3D3D3D3D7C7C2020202020202007
S113343E20532D3031202020202020202020207CBD
S113344E007C20202020204E6164762A546164760C
S113345E20202020207C7C20202020202020466933
S113346E6E6973682020202020207C007C20202080
S113347E20545F5345415243484757202020202073
S113348E7C7C2020202020202046696E69736820D1
S113349E20202020207C007C20202020202020435F
S11334AE4C5F454E442020202020202020207C7C70
S11334BE2D2D2D2D2D2D2D2D2D532D30302D2D2DFE
S11334CE2D2D2D2D2D2D7C007C2020202020202004
S11334DE545F525458202020202020207C7C202011
S11334EE202020202046696E697368202020202029
S11334FE207C007C20202020202020434C5F454E41
S113350E442020202020202020207C7C2D2D2D2D99
S113351E2D2D2D2D2D532D30312D2D2D2D2D2D2D9C
S107352E2D2D7C00BF
S9030000FC
